:100000000C94FF600C942B610C942B610C942B616D
:100010000C942B610C942B610C942B610C942B6130
:100020000C942B610C942B610C942B610C942B6120
:100030000C942B610C942B610C942B610C942B6110
:100040000C942B610C942B610C942B610C942B6100
:100050000C942B610C942B610C942B610C948A886A
:100060000C942B610C94B28A0C94DE8B0C942B6153
:100070000C942B610C942B610C942B610C942B61D0
:100080000C942B610C942B610C942B610C942B61C0
:100090000C94EB8A0C941D8C0C942B610C942B61AA
:1000A0000C942B610C942B610C942B610C942B61A0
:1000B0000C942B610C942B610C942B610C942B6190
:1000C0000C942B610C942B610C942B610C94248B5D
:1000D0000C945C8C0C942B610C945D8B0C949B8C1D
:1000E0000C942B6105A84CCDB2D44EB93836A90278
:1000F0000C50B9918688083CA6AAAA2ABE00000026
:10010000803FA8640965686D895CE95B295CC86407
:10011000686589650965095D095D495CA953E85C05
:10012000285D464BC85368652965C964A95C0954B4
:10013000495C28654854E842A853C95CE9640965EC
:1001400029658965285DC85C4A5CA96448650965BC
:10015000C85C28654865895C085C085C685C8865E3
:10016000285D4853E9536865A85C685C08650965C3
:1001700009654965E85C675C685C895CA95C296520
:100180008865A8650965095C4A5C6965C765885C1E
:10019000E953C964085D0964E853A85C8865C765CC
:1001A0000965685348548965C85C89546965476E18
:1001B000076EA865E865E865A964295C095DA7651F
:1001C000E765095C485CE96449650965485C685312
:1001D000085C485DA85CC853085D2866E96D496500
:1001E000885C8953A85C48662866886D6865E86DF8
:1001F000486EE865A96509656853A84BA865486E0F
:10020000086EC95CE96428652965C95C685CA85CFE
:10021000A8650866885488536965486EA864095CB7
:10022000095CE953A854A865A8652865E9642965AF
:100230002965C85CA95C695C485388536865A965F1
:10024000286588658865085D495C285C4965286E75
:10025000686EE865A85C485C88658865E95BA95BB1
:1002600003214421695CE85CA95CA864E964096530
:100270006964A85BE853695C295C685C0965C95CD2
:10028000485CA211A1110109C108A219A111A21172
:10029000A1118211A2112000A219A2196219E3185A
:1002A000894A0B63E642485D09652965C765A9650A
:1002B000C964495CE85B485C69650866A7652865B0
:1002C000A95C231A431A2212221222124212221A63
:1002D000231A221A42122212221AC211E3186A4A5F
:1002E0008E730C63E32086434965E964E8644765DF
:1002F000E95C095C485C4865E86D486E286EE85C1E
:10030000E8532000200020004000200020002000B2
:1003100020002000200040006008E3206A528E7315
:10032000AA52E420E31803190643695C8853A85CC9
:10033000C864E8538854076EA86D4865E865A85CF2
:1003400088530323C31AE31AC31AE31AE31AA1005A
:100350002212C31AC21A231A2421694A8E73AB5A75
:10036000E739C21082102521C318A310C953A85C15
:100370004865C85C075DA86DE864895CE95C286530
:1003800028650223E31AE322031B031B032302094C
:100390008212031B431A64218A528E73AA522521AA
:1003A000A3188952C310E318C2104421A64209655C
:1003B000A86D886588652965C96C495C095CC85C5D
:1003C000485D621262126212621262126212A2121C
:1003D0008212E3194319694A8E73CB5A073AA21065
:1003E0004108494A2D6BA210A3180421C531674B5F
:1003F000C95C68656865C85C896408548953E95BB1
:10040000495C600060004000000060006100600026
:100410008108C21049520C638A52A2108631694A7F
:10042000C31828428A52CB5AA210A318C210852999
:10043000A53A2854A9642954A953474B2843885303
:10044000095CE31A032362094209031BE31A621AD7
:10045000E210694A2C632C6BE318E3188210CB5A24
:10046000EB62E3208208694A8A52A210C218242152
:10047000E210E953E85C685D0965A8538742E84BE0
:10048000285DC21AE31A41092209A31A231A8429F2
:10049000A210494A2C6B4D6BE318A318C31869527C
:1004A000AB5AAA5A042165298952AA52E318C318E3
:1004B0000421CA5AC95B686E07666854E84A8854C2
:1004C0002866A21AA21AC209C209431AA2106952C6
:1004D000CB5A031908422C6B0C63A3100321A21002
:1004E000E418AB52AA52252945292842C839A2103E
:1004F0006A522C63EA5A486EE85CC853085448654F
:10050000286EC221A221C229C229A22928420C6335
:100510000C636952452908426D730C63E318A210FD
:10052000A2100319EC62CB5AA210C318C210494A98
:100530008E73EC5A43218865895C695C4865A865BF
:10054000A965000000000000000000000421052152
:100550002C630C636A52A21808420C630C63A2104D
:10056000C318252108420842C310C2186A4A8D7375
:10057000EC62E3202319C864C964096548654865CD
:100580004865000000000000000000000000442951
:1005900024210C630C636952242128420C630C63F0
:1005A0008631A210E318E318A631484A8E730C6313
:1005B000E320E1106111C9640865C8640854E85C6F
:1005C000E86D0000000000000000000000000000D6
:1005D000252124212C632C636A52242128420C6398
:1005E0000C63E318A210A218694A8D73EC5AE31841
:1005F000C208410962118853285C695C285C885CE8
:10060000E85C0000000000000000000000000000A6
:100610000000242124212C630C638A520421084207
:100620008E738A52C218494A6D738A52E320A21906
:10063000C1086209E108C842A84BE95C4965495C08
:1006400068530000000000000000000000000000EF
:1006500000000000242124212C630C638A52A3187B
:1006600008428E732C630C630C63E320C319831A56
:10067000A100410941118853A75CC86D2965495CF7
:10068000895300000000000000000000000000008E
:10069000000000000000242124212C630C638A52F6
:1006A000C31828428E73AA52E318E210C31AA21A82
:1006B000A10021098211E86C885C695CC85CA85CB7
:1006C000885C000000000000000000000000000046
:1006D0000000000000000000242124210C630C63B2
:1006E000694AE3182842E32042110209E322A31ACF
:1006F000C10021098211685DE8538953E95C896D65
:1007000088650000000000000000000000000000FC
:1007100000000000000000000000042124214D6BB7
:100720008E73694A4421E31982094209E2110000EB
:10073000000061098211695C885C675DC865086EAC
:10074000476E0000000000000000000000000000F4
:1007500000000000000000000000000044290C63BD
:10076000E320E318C319C21AA2090109E31A82128D
:10077000810021096211685C4865E8656965E96581
:1007800048660000000000000000000000000000BB
:100790000000000000000000000000000000242114
:1007A0008631C321A31A031B82110209E21AA21A7D
:1007B000A10041096211A95C6865E9640854C85C3C
:1007C000A85D000000000000000000000000000024
:1007D0000000000000000000000000000000000019
:1007E000E318C31AA31AE21A62090209E31AA22241
:1007F000A10022098211295C0965685C0743A8539E
:10080000C9640000000000000000000000000000BB
:1008100000000000000000000000000000000000D8
:10082000810962120000200000004209E322A31A9D
:10083000A10061092111895C495C8953284B485406
:10084000686D2000000000000000000000000000B3
:100850000000000000000000000000000000000098
:100860008209E21AE21AE21AC211E100E31AA21A9C
:10087000A1002109C211E95CA853294BA95328659D
:10088000276EE108E100A2198211A211A2118219BA
:10089000A11140008111A211A211A211C111221AAD
:1008A000221222122212221A221A2212221A221290
:1008B000231A421A2212421A231A20002000200072
:1008C00040000000200020002000400020004000E8
:1008D000400020004000E21AC31AC31AE322A10814
:1008E0002212C31AC31AC31AE31AE31AC31A8100E5
:1008F000E31AE31AE31A031B032301096212031B21
:10090000031BE322E322031B031B0209031B631ADD
:10091000821263126212A212821262126212A21A6E
:10092000A312831AA21AC21A8312200020006000A8
:10093000600060006000600060000000E108E20804
:10094000E208E208020962094209031BE21AE31AFB
:10095000E21AE21A031B4000C21AE31AE31AE21A6F
:10096000E21A42092109C31AC21AC21AC21AC31AC8
:10097000C21A2000A21AC21AC21AE21AE21AC2113C
:10098000C211A21AA21AA21AA31AA21AA31A2209FF
:10099000821AA21AA21AC21AC31AC229C229A229E9
:1009A000C221C229C229A229C221C229C229A2293F
:1009B000C221C229C2298209E21AC21AE21A820994
:1009C000E108E31AC322C10021094111A209E21A78
:1009D000E31A031BA2094209021240000000410968
:1009E00021098209E31AE21AE21A82090109C21AEC
:1009F00062126000410921098209E21AE31AE31A2E
:100A000082090109E31AA31AA10021092109A109F8
:100A1000E31AE21AE21AA2090209E31AA31AA100D0
:100A200021094109820962120000200000004209E8
:100A3000C322A31AA108410980008211E31AE31A14
:100A4000E21AA2090101C31AA21AA1002109411147
:100A50008209E31AE21AE31A81110209E31AA31ABE
:100A6000A100210921098209E21AE21AE21AA20967
:100A70004209E2110000000041094109A209E21205
:100A8000E21AE31AA1090109C31AA31AA10821094C
:100A900041118209E31AC31AE21AA2090101E31AF9
:100AA000A31AA10021092109A109E2128212A21AA6
:100AB00042090109E21AA31AA100210921098209A8
:100AC00062120000400000004209C21AA31AA100ED
:100AD0006109A000A209E31AC31AE21AA2090101DE
:100AE000E31AA31AA10021092109A8640865486D29
:100AF000895CE953295CE964686589650965E95C95
:100B0000095D495CC953C95C285D274BC8536865BA
:100B10002965C95CA9640854295C28654754E842E2
:100B2000A84BC95CEA64096529656965485DA85CEC
:100B30004A5CA95C48650965C85C28654865895CAC
:100B4000085C095C685C8865285D484BE85369650A
:100B5000A85C885C2865096509654965E8644754AF
:100B60006864885CA95C29658965A8652865095C55
:100B70004A5C6965C865885CE85BE95C0865085C97
:100B8000E953A854886DC765096568534854896559
:100B9000A85C695C885D476E076EA865E865E865D6
:100BA000A964295C095DA765E865095C485CE9649E
:100BB00048652865485C695B085C485DA85CE8534B
:100BC000085D286EE86D4965895C8953A85C4866B4
:100BD0002866886D686DE86D286EE865A9652965E9
:100BE0006853884BA865286E086EC95CE85C086588
:100BF0002965C95C685CA85CA86508668854895347
:100C00008965486EA864095CE85B88538854A865C8
:100C1000C8652865E86C29650965C85CA95C6964D4
:100C200028538853686589652865A865A86508659F
:100C3000295C485C4965296E686EC865A85C486493
:100C400068658865095CA95BE318E3180743C85C1D
:100C5000A95CA864E864295D695CA85BE853695CE9
:100C6000295C685C0965E85C685C895C2865886566
:100C70008853885328652754A964A8644865E865A3
:100C8000A8656865E532863A0C638A52E3206140C4
:100C900060506150000881588058815861588150D7
:100CA00061582028402061606158C85C286508654B
:100CB000C85308544865285C8953A85C88656865F2
:100CC000496D09654643E320EC628E736952E3186F
:100CD000815061706068817861708170607061704E
:100CE00080706170617060708170086EA865E95CE9
:100CF000285CE85CC865485CE75B67654865285424
:100D0000A96406430319E318E3208A528E73694AE3
:100D1000E320201020080008000000000000000070
:100D200000000008000000080000686E286E48659A
:100D30004964E85C07666865C9644965A85CC95B85
:100D4000A310A31025218210A210E639CB5A8E736E
:100D50006952242181608188819060580018A1988F
:100D6000818881908190818881A0A865485D685CB8
:100D7000C95B895C68652965A85CC85CA85CA642FB
:100D80002421A218E318C2108952C2182429AA5299
:100D90008E6B6A522431A168A19881682030A19895
:100DA0008088819081908188A1984865895C68538A
:100DB0006953495C2965295488534854674BC531A8
:100DC000E320A318A2102D6B494A4108C218E73945
:100DD000CB5A8E736A5204296150606860706068F3
:100DE00060686068606060686060E86D285D085CED
:100DF0002854E8644865685C8853A63A8529A2109F
:100E0000A218C210CB5A8A522842E318494A8631A6
:100E1000A2108A5A0C63694AA210201820100010F0
:100E200000100008000000100010685D8954C95BC4
:100E3000E85CC96DC86D2965C953E2102421C21050
:100E4000A2108A526952A210E318EB5ACB5A6210D0
:100E5000C318E3184D6B0C636952A218A16881880E
:100E6000A09840384038A1988188A95C495C685CAA
:100E7000C865486E68652964EA520421C318E318FE
:100E8000AA52895265290421AA5AAB5A694AC31841
:100E9000A310E3204C6B2D63494AA31024318158E1
:100EA00081782030203081888078286568650866E0
:100EB000286EE865C74BCA5A0C636A52A218C73934
:100EC000284245292429AA52AA52C318C21004193B
:100ED000A2180C632C6308420321CB5A8952A21832
:100EE00081604048415081786070C95C686DE865F8
:100EF000C964E85B663AE318EB628E73694AA3182B
:100F0000C218A210CB5A0C63E318A210A210E31867
:100F10000C636D6B0842452969520C630C63084AE7
:100F2000A148A0588158A150A050E85B485CA96432
:100F3000C853E84AA8428238E320EB628D736A52B4
:100F4000C318C210084208422421C318A2100C631F
:100F50000C630842A21869520C630C6324212421FB
:100F6000200000004000400020004853684BE95337
:100F7000495C085CA953A1506128E3180B638E7388
:100F80004942A631E318E420A21886310C630C63B1
:100F90002842242169520C630C6324212429000077
:100FA00040004008000000008000495C885C486503
:100FB000086E07654953414040284118E320EB6221
:100FC0008E73694AA2188210E3200C630C632842D6
:100FD00024216A522C632C63242125210000000067
:100FE000000000000000000060006965C8656766D9
:100FF00068762865484B0020203000186148E320BF
:101000008A526D73494AC210AA528E730842242133
:101010008A520C632C63242124210000000001006B
:1010200001000000200000000000E85C68656965C0
:101030000965E864675D4030203020188178815070
:1010400003190C630C632D638E730842A3188A5234
:101050000C632C6324212421000000000000000008
:1010600000004008000001000100085D485D49657E
:10107000895C0965486E4048403020188188608846
:101080006128E3188A528E732842C3188A520C636F
:101090002C63242124210000000000000000000037
:1010A00000000000000000000000C865C865686D11
:1010B000A964095DA8654040203020208190A1905E
:1010C0002028613003192842E320694A0C632C630D
:1010D0002421242100000000000000000000000086
:1010E00000000000000020002000C765A9652865F9
:1010F0002964695C085D40484038000000004050A9
:1011000040384040815803216A4A8E734D6B242138
:1011100004210000000000000000000000000000AA
:1011200000000000000020004008A76D88654865A9
:10113000E85C495C485C4040402820108180A188E0
:101140002028404081808150E318E320EC6225296B
:10115000000000000000000000000000000000008F
:101160000000000000002000200028652965486577
:101170008865085DA95C40402030202080888190EF
:1011800020284048818881788150663144290000B8
:10119000000000000000000000000000000000004F
:1011A000000000000000000020008A5C685CA96468
:1011B0004865C865286E404020302020A180A1905D
:1011C00020304038807861708078E3204000200033
:1011D0000000000800000000000000000000000007
:1011E00000000000000000002000E95CC95CA96468
:1011F0006865E85DA9652018203820188188A090CE
:101200002038000000080000606840400000000036
:10121000000000000000000020002000000000008E
:1012200000000000000000000000C8654865086D6F
:101230004965485DA964404840300020818881901C
:10124000202840488190818081804140000000003A
:101250000000000000080000000020000000000066
:1012600000000000000000000000815881608160E3
:10127000A16061580008C158815881586160805848
:10128000E1602028402860788178817881788178B1
:10129000807081808178817881788170817881788F
:1012A000617000080000000800080008000800083D
:1012B0000008000800000008000800080008A198C5
:1012C00020108188A198A19881908190A19061605F
:1012D0002020A1A0A190A190A190A1982030818868
:1012E000A198A198A198A198A09860702030A1A081
:1012F000A190A190A19080708180607881788178A0
:101300006170607060706070617881706170617030
:101310006070202820282028402800280000001085
:101320002008001000100010001000000008808845
:1013300081908190819080880008A198819081900F
:1013400081908190C1984038404081808180808028
:101350008180807800088188818080808180808081
:10136000A1902030403880808180808081806170B1
:1013700020308180817880788180817880804050A1
:101380004050026901590159E1500269015901595E
:10139000E150026901590159E1500269015960485F
:1013A00020302020C198A198202840488188808042
:1013B0008188404860484038000000084158403863
:1013C00040488188808081884048614820300010F2
:1013D00081688180203040488090818081804048B1
:1013E000604040382020A190A19820284040819062
:1013F0008080A188404880482030202080888198C3
:1014000040284048A1908188A18840482018403851
:101410000018A190A19040380000000800008168E9
:101420004048804820380018A190A19020284048CA
:10143000A190818881884048614820302020A19077
:10144000A1982028404881888180A1884048604830
:10145000203800000000405040384048A08881807B
:1014600081884048604840382018A188A0902030EA
:101470004048A19081808188404860482030002009
:101480008190A19840284048A1908188A188404837
:101490004040203020188188A19820304038807842
:1014A0008070808040400018403820188088A198C3
:1014B0004038000000080000816840488048203023
:1014C00000208190A19840284048A1908188A1885F
:1014D000A1880000000000000000000000000000E3
:1014E000000000000000EEA495FF13E70FC62EAD2C
:1014F0006C946973C441000000000000000000000B
:1015000000000000000000000000000000000000DB
:10151000000000000000000000006008496B15E7B3
:10152000F6FFF4FFF3FFF4FFF3FFF2FFF1FFB0DE8D
:101530000219000000000000000000000000000090
:10154000000000000000000000000000000000009B
:101550000000032192D6F5FFF3FFB1FF4FFF4EFFCE
:10156000CBFEABFE2DFF0EFFA693A11800000000DE
:10157000000000000000000000000000000000006B
:101580000000000000000000E2186C8CD5FFF4FFA2
:1015900091FF2FFFCBFE8AFE29FE4BFE2AF6E4D4F4
:1015A00027E5C24900000000000000000000000024
:1015B00000000000000000006010E259416A20397C
:1015C000687BB3FFF3FFB1FFEEFE8BFE2AFEA6FDA4
:1015D00028FE29F6E6CC80AB61C480410000000003
:1015E0000000000000000000000000000000C1201A
:1015F0006493A6FD42FDC6F50EFFF2FF90FF0DFFBE
:101600008AFEE7FD65FD65FD6AFE48D580A360A3FF
:10161000406AA01800000000000000000000000068
:10162000000000004039A1B301FD81E4E2E48BFE3B
:10163000B0FF4FFFCCFE48FEA6FD45FD23F5E8FDBB
:1016400009EE24B48082C082601000000000000017
:1016500000000000000000000000047B67DD87FE42
:10166000C5FD84F54AFE2DFF4EFFCBFE07FE64FD4F
:1016700003F5E2EC43F56AFEC5C4008B807AA059FD
:101680004008000000000000000000000000000012
:10169000000041414162C49B47D56AF66FFF0DFFD0
:1016A0008AFEE8FD44F503F5A1ECA1EC65F588E5BB
:1016B000629B807A607AA04000204038E392AAD5ED
:1016C0000AADE8834229000000000000000000008D
:1016D000E218AAA42EF7EBFEA6FD24FD02F5E2EC2B
:1016E00080E423F5E7F523B4E08A407A60590020CE
:1016F000804826BC4EFFF3FFF3FFF4FFF6FF70DED9
:101700008583000000000000A43130EFCCFE07FE0E
:1017100063FD02F5E1EC60DCC1ECA6F568DD018B50
:10172000C082E0698048816169D5B1FFF4FFF3FFB1
:10173000F3FFF8FF53F787B4406A00000000A431BC
:101740006CB56DFF07FE65FD42F5C1E480DC40DC51
:10175000A5F50AF6E4A3A082407AA038E14008CDBE
:1017600093FFF6FFF7FFF8FFF9FF71DEC49B4072AD
:10177000807A00000000266B6DFFE7FDA5FD64F593
:10178000E2EC80E440DCE3EC29F628CD807AC08AE4
:101790006049400800000000C349878B8FCD15F7D2
:1017A00050DE639B407AA082E08A0000C562E9DDDA
:1017B00087FE23F503F502EDA1E460E4A0E44AFE10
:1017C000CADDA39B407A6072802000000000000008
:1017D000000000008018435A82A3C082C08AE08AB9
:1017E000406A0000066BCAD549FE27FE06FE63F577
:1017F000E1ECE2F4A6FD8CFE66B4608280824039A2
:101800002008000000000000000000000000801818
:1018100021930093A07A80410000000000000000A6
:101820008018C66248A46AD54AEEECFEB0FFEBD53C
:10183000829B407A20622008000000000000000027
:10184000000000002008604160A3A07AA0200000F2
:101850000000000000000000000000000000000088
:10186000A218E762EAB4A4A3E08A406A203100002B
:1018700000000000000000000000000040084039A7
:10188000416A801800000000000000000000000015
:101890000000000000000000000000006020407A0E
:1018A000009BA051000000000000000000000000AC
:1018B0000000000000000000000000000000000028
:1018C0000000000000000000000000000000000018
:1018D0000000000000000062807A20390000000053
:1018E00000000000000000000000000000000000F8
:1018F00000000000000000000000000000000000E8
:101900000000000000000000000000000000604136
:10191000E0280000000000000000000000000000BF
:1019200000000000000000000000000000000000B7
:1019300000000000000000000000000000000000A7
:10194000000000004062E0280000000000000000ED
:101950000000000000000000000000000000000087
:101960000000000000000000000000000000000077
:101970000000000000000000000000000000000067
:101980000000A88B2BBD0CBDA4A3C0280000000044
:1019900000000000000000000000811007730CBD73
:1019A000CCB4CBB48BACECB48BA4A441000000004D
:1019B0000000000000000000000000000000000027
:1019C00000000000A05169AC0CBD4CC5E44900000A
:1019D00000000000E220A98B2CBDCCB4CCB4EBAC51
:1019E000CCB4CCB4CCB4EBB4CBB4ECB4CBACE54914
:1019F00000000000000000000000000000000000E7
:101A0000000000000000225AA9AC0CB5A5A3C02814
:101A10000221655A88830CC5CBB4CBACCBB4CBB414
:101A2000EBB4EBB4CCB4EBB4EBB4A9B4448BACB42E
:101A300000000000000000000000000000000000A6
:101A40000000000000000000687B069C489CE69BAC
:101A5000E79B668BE5A3ADD5CBACECB4CBB4CBB4F4
:101A6000ECB4ECB4AAA423838593CCACAAAC438396
:101A7000248B0000000000000000000000000000B7
:101A80000000000000000452A318A24169AC0CBD84
:101A90000BB5E79B07AC6CCDCBB4CCB4ECB4ECBCD1
:101AA00069A4A58B0CB5CBBCABB4448B648B0CB5D3
:101AB000638B000000000000000000000000000038
:101AC00041080000A88B0221089C2552403968B4C7
:101AD0000CB5CCB4EBB4CBB4CCB4EBB448A4A68B6B
:101AE0000BB569A423832483648BA9AC4483458309
:101AF000838B0000000000000000000021000000B7
:101B0000A3394AA40CB5CCB4EBBC4CCDA4394039B4
:101B100088AC0CB5CCB4ECBC279CA6930DBD69A4D5
:101B20002383C593ABAC2383448B2383638B438B89
:101B3000448B00000000000000000000054A6072B5
:101B400049A4EAB4EBB4EBB4CBB4ECB4CCB4CBB4AE
:101B5000ECB4CBB4CBB4ECAC0CBD68AC027BA693BC
:101B6000ABB44483658B448B438B448B658BEBB464
:101B7000638B000000000000898BABB4EBACCDDDC3
:101B8000438B48A4ECB4EBB4ECB4CCB4CBB4EBB41E
:101B9000CCB4EBB40CBD48A42383E79B8AA4037B9D
:101BA0006483428B248B448B448B448B648B638390
:101BB0004283000069A46FF6AFFEAEFEAFFED2EE28
:101BC00013FF8ECD0283079CEDB4CCB4ECB40CB5FE
:101BD000089C238B448B438B4493649344934383AB
:101BE0004383A693AAAC438B438B648B448B238B98
:101BF000A172ACB4B0EECFFE83ED82C441BC2DF631
:101C000011EF12EF36FF07A4406A0383648B648BE5
:101C1000438B438B438B438B4483279C89AC238327
:101C2000648B448B438B8172C172A072C0728072CC
:101C30000000CCB492F663C4B1EED2F614F7A4CC93
:101C40002BEEF2EE13F7AECD2383E27A648B448B56
:101C5000448B638B448B448B438BE79B8AAC248BF4
:101C6000438B648B238380728072C17A616A000027
:101C70000000ECB4B2F682C4B1E6D3EED0F614F7AD
:101C800046DD00E58EFEAFCD2383E17A648B448B85
:101C9000448B448B448B638B638B4383638B648B58
:101CA000238380728072A17A20620000000000000D
:101CB0000000CCB4B3F6E3D449FED3FEA3C430EEA7
:101CC00035EFC4C42EEEAECD2383E282648B448B09
:101CD000438B648B438B448B648B648B2383807A2C
:101CE000C072A172A17A2162000000000000000011
:101CF0000000CCB4B2F663C4B2EE83C4CFEEC3C46A
:101D00004FEE45DD4EF6AFCD2283E17A448B448B16
:101D1000648B438B448B448BE27A8072A07AA07AE6
:101D2000A072616A43310000000000000000000062
:101D30000000ECB4B2F6E2DCB1EEF3F683C490EE50
:101D400014FFA4CC2EEEAFD52383E17A648B448BB1
:101D5000448B0283A072A072A07AA07AC182C27260
:101D60002329000000000000000000000000000027
:101D70000000CBB494EE83C441C472EEB3F694EE8B
:101D8000F4F624DD4DF6AFCD2383E2828493028303
:101D90008072A072A072A072A27A846202290000EE
:101DA0000000000000000000000000000000000033
:101DB000000000006CA495F6F2F661E56FEED2F635
:101DC000F3FEC4CC4EEEAFD52383017B638B02833D
:101DD000A17A8172C07A207BC03900000000000027
:101DE00000000000000000000000000000000000F3
:101DF00000000000000091E6F3F6A4CCC2D462C457
:101E000000DD6BF6F2FE8ECD43838072C17AA07244
:101E10008072C07A6262C2200000000000000000F0
:101E200000000000000000000000000000000000B2
:101E3000000000000000000051DED5F6B0FEAFFE4D
:101E4000AFFE10FF8ECD23838072E182235A843946
:101E5000C441E21800000000000000000000000083
:101E60000000000000000000000000000000000072
:101E7000000000000000000000000A9C0BBDABB495
:101E8000ABB4AAB4CBB48393C02000000000000020
:101E90000000000000000000000000000000000042
:101EA0000000000000000000000000000000000032
:101EB0000000000000000000000000000000000022
:101EC000406BE0FF008400000000815123AB000064
:101ED0000000000000000000000000000000000002
:101EE0000000000000000000000000000000815021
:101EF00004B10138205B80F760EFE073813064F457
:101F0000A29200000000000000000000000000009D
:101F1000000000000000000000000000428244F4C5
:101F20006141414004B162480000005BC0FFE073C2
:101F3000813044F4828A00002020E398A2680000E7
:101F40000000000000000000000000000000000091
:101F5000227AA3CBE3DB815900000138A2BB00D772
:101F600000E7A073C138C2920110E398C380C38810
:101F7000A26800008010069BE592C4820000000069
:101F8000000000000000618AA1590000614804A11E
:101F90000138A04A60EF806BC038A2920010C29056
:101FA000C288A26000008018059B647A2000A59278
:101FB00000A000000000000000000000427AA149DB
:101FC0002130E3980230804A00E78063C138828A7A
:101FD0000010C388C278A25800008010E592A58244
:101FE000A57A6472200040AC20A400A5A0B5A02969
:101FF000615183CB6049213801388042A0DE4063C3
:10200000A130A3BA8270A37862504021C09C000026
:10201000C58A8582246A000800A000000000C094E0
:1020200040AD8029415143C3414121300138603ADC
:1020300060D64063813083B283684248401900C64D
:10204000408C000040108482236A000000A0000041
:10205000000000000000606B003A214143B34141A1
:1020600000208481C582857AA58AC3590000A039E1
:10207000608C8010E0BD408C00004482E461000070
:1020800000A00098000081580110804A00A5A029F6
:10209000E138E2AAE171214941512149A2598482E2
:1020A000658263512019E0BD008400082482037218
:1020B000C369000000A8009800008250401800008A
:1020C000404AC09CE039201021514149A02800001D
:1020D0000000401082594482635900006018E3797F
:1020E0000141E381A269000800A80098000081482E
:1020F000201041300010804A204220102149014127
:10210000014101412041A028200841590382E3797F
:10211000A271C03801490382E381C271000000004E
:1021200000000000000041288250001021490041B9
:10213000400801410039E138E138E14080282008B9
:102140000141E140E040C040E148E37980380000CF
:102150000000000000000000000000000141C1710B
:10216000A171C2814159C028C038E030E1388020D7
:102170002008E148C140C048C0400151428AE27194
:10218000000000000000000000000000000000004F
:10219000000000000000000000000000000000003F
:1021A00000004018C048C040A040E158428AE2798F
:1021B0006038000000000000000000000000000087
:1021C0000000000000000000000000004018A030E7
:1021D000A130A038A038A038A04080400159829298
:1021E000E2690000000000000000000000000000A4
:1021F00000000000000000000000000000000000DF
:1022000000004010A0386020000020188050804856
:10221000805080400000000000000000000000002E
:1022200000000000000000000000000000000000AE
:1022300000000000000000000000004A00E680836B
:10224000000000000000000000000000000000008E
:10225000000000000000000000000000000000007E
:102260000000000000000000000000000000C04965
:10227000E0DD0073002140EE209C00000000000023
:10228000000000000000000000000000000000004E
:10229000000000000000000000000000000000003E
:1022A000405240830000004A209C000000000000D3
:1022B000000000000000000000000000000000001E
:1022C000000000000000000000000000000000000E
:1022D0000000000000002052808300000000000089
:1022E00000000000000000000000000000000000EE
:1022F00000000000000000000000000000000000DE
:10230000000000000000000000000000C041A0D557
:10231000007B0000A0D5007B000000000000000052
:10232000000000000000000000002029403160395A
:10233000803980398039A039A0418039803980398D
:1023400080398039803980398039803980398039C5
:1023500080398039803980398039803980398039B5
:10236000A041A041A041A041A04160206020602088
:10237000602060206020602060206020602060205D
:10238000602060206020602060206020602060204D
:1023900060206020602060206020801880188018F5
:1023A00080188018801880188018003000300030A5
:1023B000003000300030003000300030003000309D
:1023C000003000300030003000300030003000308D
:1023D0000030003000300030003000380030003075
:1023E000003000300038003000306031C041004A19
:1023F00020524052405A405A405A405A405A405A3D
:10240000405A405A405A405A405A405A405A405AFC
:10241000405A405A405A405A405A405A405A405AEC
:10242000405A405A405A405A405AA028A028A02852
:10243000A028A028A028A028A028A028A028A0285C
:10244000A028A028A028A028A028A028A028A0284C
:10245000A028A028A028A028A028A028A028A0283C
:10246000A028A028A028A028A028004800480048AC
:10247000004800480048004800480048004800481C
:10248000004800480048004800480048004800480C
:1024900000480048004800480048004800480048FC
:1024A000004800480048004800408039004A405A2F
:1024B0008062A06AA06AA06AA06AA06AA06AA06AF4
:1024C000A06AA06AA06AA06AA06AA06AA06AA06ABC
:1024D000A06AA06AA06AA06AA06AA06AA06AA06AAC
:1024E000A06AA06AA06AA06AA06AC030C030C030EA
:1024F000C030C030C030C030C030C030C030C0305C
:10250000C030C030C030C030C030C030C030C0304B
:10251000C030C030C030C030C030C030C030C0303B
:10252000C030C030C030C030C030005800580058F3
:1025300000580058005800580058005800580058DB
:1025400000580058005800580058005800580058CB
:1025500000580058005800580058005800580058BB
:1025600000580058005800580050A0412052A06266
:10257000E0720073007300730073007300730073E4
:1025800000730073007300730073007300730073B3
:1025900000730073007300730073007300730073A3
:1025A00000730073007300730073E138E138E138A1
:1025B000E138E138E138E138E138E038E038E03856
:1025C000E038E038E038E038E038E038E038E0384B
:1025D000E038E038E038E038E038E038E038E0383B
:1025E000E038E038E038E038E03800600060006053
:1025F00000600060006000600060006000600060DB
:1026000000600060006000600060006000600060CA
:1026100000600060006000600060006000600060BA
:1026200000600060006000600058A0414052C06A35
:102630000073207B207B207B207B207B207B207BEA
:10264000207B207B207B207B207B207B207B207BB2
:10265000207B207B207B207B207B207B207B207BA2
:10266000207B207B207B207B207BE038E038E0381B
:10267000E038E038E038E038E038E038E038E0389A
:10268000E038E038E038E038E038E038E038E0388A
:10269000E038E038E038E038E038E038E038E0387A
:1026A000E038E038E038E038E0380068006800687A
:1026B00000680068006800680068006800680068DA
:1026C00000680068006800680068006800680068CA
:1026D00000680068006800680068006800680068BA
:1026E00000680068006800680058A041405AA06A6D
:1026F0000073207B207B207B207B207B207B207B2A
:10270000207B207B207B207B207B207B207B207BF1
:10271000207B207B207B207B207B207B207B207BE1
:10272000207B207B207B207B207BE038E038E0385A
:10273000E038E038E038E038E038E038E038E038D9
:10274000E038E038E038E038E038E038E038E038C9
:10275000E038E038E038E038E038E038E038E038B9
:10276000E038E038E038E038E038006800680068B9
:102770000068006800680068006800680068006819
:102780000068006800680068006800680068006809
:1027900000680068006800680068006800680068F9
:1027A00000680068006800600058A041405AA06AB4
:1027B0000073207B207B207B207B207B207B207B69
:1027C000207B207B207B207B207B207B207B207B31
:1027D000207B207B207B207B207B207B207B207B21
:1027E000207B207B207B207B207BE138E138E13897
:1027F000E138E138E138E138E138E138E138E13811
:10280000E138E138E138E138E138E138E138E13800
:10281000E138E138E138E138E138E138E138E138F0
:10282000E138E138E138E138E138006800680068F3
:102830000068006800680068006800680068006858
:102840000068006800680068006800680068006848
:102850000068006800680068006800680068006838
:1028600000680068006800600058A0414052C06ADB
:102870000073207B207B207B207B207B207B207BA8
:10288000207B207B207B207B207B207B207B207B70
:10289000207B207B207B207B207B207B207B207B60
:1028A000207B207B207B207B207BE038E038E038D9
:1028B000E038E038E038E038E038E038E038E03858
:1028C000E038E038E038E038E038E038E038E03848
:1028D000E038E038E038E038E038E038E038E03838
:1028E000E038E038E038E038E03800680068006838
:1028F0000068006800680068006800680068006898
:102900000068006800680068006800680068006887
:102910000068006800680068006800680068006877
:1029200000680068006800600058A0414052A06A3A
:102930000073207B207B207B207B207B207B207BE7
:10294000207B207B207B207B207B207B207B207BAF
:10295000207B207B207B207B207B207B207B207B9F
:10296000207B207B207B207B207BE038E038E03818
:10297000E038E038E038E038E038E038E038E03897
:10298000E038E038E038E038E038E038E038E03887
:10299000E038E038E038E038E038E038E038E03877
:1029A000E038E038E038E038E03800680068006877
:1029B00000680068006800680068006800680068D7
:1029C00000680068006800680068006800680068C7
:1029D00000680068006800680068006800680068B7
:1029E00000680068006800680058A0414052A06A72
:1029F0000073207B207B207B207B207B207B207B27
:102A0000207B207B207B207B207B207B207B207BEE
:102A1000207B207B207B207B207B207B207B207BDE
:102A2000207B207B207B207B207BE038E038E03857
:102A3000E038E038E038E038E038E038E038E038D6
:102A4000E038E038E038E038E038E038E038E038C6
:102A5000E038E038E038E038E038E038E038E038B6
:102A6000E038E038E038E038E038006800680068B6
:102A70000068006800680068006800680068006816
:102A80000068006800680068006800680068006806
:102A900000680068006800680068006800680068F6
:102AA00000680068006800680058A0414052A06AB1
:102AB0000073207B207B207B207B207B207B207B66
:102AC000207B207B207B207B207B207B207B207B2E
:102AD000207B207B207B207B207B207B207B207B1E
:102AE000207B207B207B207B207BE038E038E03897
:102AF000E038E038E038E038E038E038E038E03816
:102B0000E038E038E038E038E038E038E038E03805
:102B1000E038E038E038E038E038E038E038E038F5
:102B2000E038E038E038E038E038006800680068F5
:102B30000068006800680068006800680068006855
:102B40000068006800680068006800680068006845
:102B50000068006800680068006800680068006835
:102B600000680068006800680058A0414052A06AF0
:102B70000073207B207B207B207B207B207B207BA5
:102B8000207B207B207B207B207B207B207B207B6D
:102B9000207B207B207B207B207B207B207B207B5D
:102BA000207B207B207B207B207BE038E038E038D6
:102BB000E038E038E038E038E038E038E038E03855
:102BC000E038E038E038E038E038E038E038E03845
:102BD000E038E038E038E038E038E038E038E03835
:102BE000E038E038E038E038E03800680068006835
:102BF0000068006800680068006800680068006895
:102C00000068006800680068006800680068006884
:102C10000068006800680068006800680068006874
:102C200000680068006800680058A0414052A06A2F
:102C30000073207B207B207B207B207B207B207BE4
:102C4000207B207B207B207B207B207B207B207BAC
:102C5000207B207B207B207B207B207B207B207B9C
:102C6000207B207B207B207B207BE038E038E03815
:102C7000E038E038E038E038E038E038E038E03894
:102C8000E038E038E038E038E038E038E038E03884
:102C9000E038E038E038E038E038E038E038E03874
:102CA000E038E038E038E038E03800680068006874
:102CB00000680068006800680068006800680068D4
:102CC00000680068006800680068006800680068C4
:102CD00000680068006800680068006800680068B4
:102CE00000680068006800680058A0414052A06A6F
:102CF0000073207B207B207B207B207B207B207B24
:102D0000207B207B207B207B207B207B207B207BEB
:102D1000207B207B207B207B207B207B207B207BDB
:102D2000207B207B207B207B207BE038E038E03854
:102D3000E038E038E038E038E038E038E038E038D3
:102D4000E038E038E038E038E038E038E038E038C3
:102D5000E038E038E038E038E038E038E038E038B3
:102D6000E038E038E038E038E038006800680068B3
:102D70000068006800680068006800680068006813
:102D80000068006800680068006800680068006803
:102D900000680068006800680068006800680068F3
:102DA00000680068006800680058A0414052A06AAE
:102DB0000073207B207B207B207B207B207B207B63
:102DC000207B207B207B207B207B207B207B207B2B
:102DD000207B207B207B207B207B207B207B207B1B
:102DE000207B207B207B207B207BE038E038E03894
:102DF000E038E038E038E038E038E038E038E03813
:102E0000E038E038E038E038E038E038E038E03802
:102E1000E038E038E038E038E038E038E038E038F2
:102E2000E038E038E038E0380039006800680068D1
:102E30000068006800680068006800680068006852
:102E40000068006800680068006800680068006842
:102E50000068006800680068006800680068006832
:102E600000680068006800680058A0414052A06AED
:102E70000073207B207B207B207B207B207B207BA2
:102E8000207B207B207B207B207B207B207B207B6A
:102E9000207B207B207B207B207B207B207B207B5A
:102EA000207B207B207B207B207BE038E038E038D3
:102EB000E038E038E038E038E038E038E038E03852
:102EC000E038E038E038E038E038E038E038E03842
:102ED000E038E038E038E038E038E038E038E03832
:102EE000E038E038E038E038003900680068006811
:102EF0000068006800680068006800680068006892
:102F00000068006800680068006800680068006881
:102F10000068006800680068006800680068006871
:102F200000680068006800680058A041405AA06A24
:102F30000073207B207B207B207B207B207B207BE1
:102F4000207B207B207B207B207B207B207B207BA9
:102F5000207B207B207B207B207B207B207B207B99
:102F6000207B207B207B207B207BE138E138E03810
:102F7000E038E038E038E038E038E038E038E03891
:102F8000E038E038E038E038E038E038E038E03881
:102F9000E038E038E038E038E038E038E038E03871
:102FA000E038E038E038E038E03800680068006871
:102FB00000680068006800680068006800680068D1
:102FC00000680068006800680068006800680068C1
:102FD00000680068006800680068006800680068B1
:102FE00000680068006800680058A041405AA06A64
:102FF0000073207B207B207B207B207B207B207B21
:10300000207B207B207B207B207B207B207B207BE8
:10301000207B207B207B207B207B207B207B207BD8
:10302000207B207B207B207B207BE038E038E03851
:10303000E038E038E038E038E038E038E038E038D0
:10304000E038E038E038E038E038E038E038E038C0
:10305000E038E038E038E038E038E038E038E038B0
:10306000E038E038E038E038E038006800680068B0
:103070000068006800680068006800680068006810
:103080000068006800680068006800680068006800
:1030900000680068006800680068006800680068F0
:1030A00000680068006800600058A041405AA06AAB
:1030B0000073207B207B207B207B207B207B207B60
:1030C000207B207B207B207B207B207B207B207B28
:1030D000207B207B207B207B207B207B207B207B18
:1030E000207B207B207B207B207BE038E038E03891
:1030F000E038E038E038E038E038E038E038E03810
:10310000E038E038E038E038E038E038E038E038FF
:10311000E038E038E038E038E038E038E038E038EF
:10312000E038E038E038E038E038006800680068EF
:10313000006800680068006800680068006800684F
:10314000006800680068006800680068006800683F
:10315000006800680068006800680068006800682F
:1031600000680068006800600058A0414052C06AD2
:103170000073207B207B207B207B207B207B207B9F
:10318000207B207B207B207B207B207B207B207B67
:10319000207B207B207B207B207B207B207B207B57
:1031A000207B207B207B207B207BE038E038E038D0
:1031B000E138E138E138E138E038E038E038E0384B
:1031C000E038E038E038E038E038E038E038E0383F
:1031D000E038E038E038E038E038E038E038E0382F
:1031E000E038E038E038E038E0380068006800682F
:1031F000006800680068006800680068006800688F
:10320000006800680068006800680068006800687E
:10321000006800680068006800680068006800686E
:1032200000680068006800680058A041405AA06A21
:103230000073207B207B207B207B207B207B207BDE
:10324000207B207B207B207B207B207B207B207BA6
:10325000207B207B207B207B207B207B207B207B96
:10326000207B207B207B207B207BE038E038E0380F
:10327000E038E038E038E038E038E038E038E0388E
:10328000E038E038E038E038E038E038E038E0387E
:10329000E038E038E038E038E038E038E038E0386E
:1032A000E038E038E038E038E0380068006800686E
:1032B00000680068006800680068006800680068CE
:1032C00000680068006800680068006800680068BE
:1032D00000680068006800680068006800680068AE
:1032E00000680068006800600058A041405AC06A49
:1032F0000073207B207B207B207B207B207B207B1E
:10330000207B207B207B207B207B207B207B207BE5
:10331000207B207B207B207B207B207B207B207BD5
:10332000207B207B207B207B207B0139E038E0382C
:10333000E038E038E038E038E038E038E038E038CD
:10334000E038E038E038E038E038E038E038E038BD
:10335000E038E038E038E038E038E038E038E038AD
:10336000E038E038E038E038E038006800680068AD
:10337000006800680068006800680068006800680D
:1033800000680068006800680068006800680068FD
:1033900000680068006800680068006800680068ED
:1033A00000680068006800600058A0412052A062D8
:1033B000E072007300730073007300730073007396
:1033C0000073007300730073007300730073007365
:1033D0000073007300730073007300730073007355
:1033E00000730073007300730073E138E138E03854
:1033F000E038E038E038E038E038E038E038E0380D
:10340000E038E038E038E038E038E038E038E038FC
:10341000E038E038E038E038E038E038E038E038EC
:10342000E038E038E038E038E038006800680068EC
:10343000006800680068006800680068006800684C
:10344000006800680068006800680068006800683C
:10345000006800680068006800680068006000603C
:10346000006800600060006000588039004A605ABF
:103470008062C06AA06AC06AC06AC06AC06AC06A64
:10348000C06AC06AC06AC06AC06AC06AC06AC06AEC
:10349000C06AC06AC06AC06AC06AC06AC06AC06ADC
:1034A000C06AC06AC06AC06AC06AA030C030C0309A
:1034B000C030C030C030C030C030C030C030C0308C
:1034C000C030C030C030C030C030C030C030C0307C
:1034D000C030C030C030C030C030C030C030C0306C
:1034E000C030C030C030C030C03000580058005824
:1034F000005800580058005800580058005800580C
:1035000000580058005800580058005800580058FB
:1035100000580058005800580058005800580058EB
:1035200000580058005800580048000000000000F3
:10353000EB5A4D6BCF7BCF7B0000000000000000FA
:10354000000000001084D39C96B596B500000000E2
:10355000000000000000718C34A518C6FBDEFBDE05
:10356000F7BD000000000000000075AD38C6FBDEAE
:10357000BEF7BEF7DBDE0000000000000000000028
:103580009AD6FBDE7DEF9EF70000000000000000F1
:10359000000000000000BAD63CE700000000000078
:1035A00000000000000096B5F7BD79CEFBDEFBDE23
:1035B000F7BD000000004D6BB29496B559CEFBDE0E
:1035C0005DEF5DEFBAD6F7BDF39C8E7334A559CE8F
:1035D0003CE77DEFBEF7BEF77DEF1CE738C6CF7B3B
:1035E00096B5FBDEDFFFFFFFFFFFFFFFFFFFDFFF03
:1035F000FBDE1084F7BD5DEFFFFFFFFFFFFFFFFF66
:10360000FFFFFFFF5DEF1084F7BD5DEFFFFFFFFFE2
:10361000FFFFFFFFFFFFFFFF5DEF1084F7BD5DEFD2
:10362000FFFFFFFFFFFFFFFFFFFFFFFF5DEF1084C6
:10363000F7BD5DEFFFFFFFFFFFFFFFFFFFFFFFFF96
:103640005DEFCF7BD7BD3CE7FFFFFFFFFFFFFFFF35
:10365000FFFFFFFF3CE7000075ADDBDEBEF7FFFFBD
:10366000FFFFFFFFFFFFBEF700000000000038C6AD
:103670005DEFDFFFFFFFFFFFDFFF00000000000046
:103680000000B6B5FBDE9EF7FFFFFFFF9EF70000D0
:1036900000000000000075ADBAD67DEFFFFFFFFF10
:1036A0007DEF000000000000000055ADBAD65DEFD0
:1036B000FFFFFFFF5DEF0000000000000000F39C33
:1036C00038C6BAD65DEF5DEFBAD600000000000044
:1036D00000000000EB5A6D6BAE73000000000000AC
:1036E000AA524D6BCF7BCF7B000000000000EB5A4D
:1036F0006D6BAE7300000000000000000000EB5A8C
:10370000108414A596B514A500000000CF7BD39CAF
:1037100096B596B5000000006D6B108414A596B5A3
:1037200014A500000000000000006D6B14A579CE08
:103730001CE779CE00009294F39CF7BDFBDEFBDE24
:10374000F7BD0000929455AD79CE1CE779CE00000C
:10375000000000000000CF7BD7BD3CE7DFFF3CE767
:10376000000055ADB6B5BAD6BEF7BEF7BAD6000062
:1037700055AD38C63CE7DFFF3CE700000000000025
:103780000000CF7BB6B5FBDE9EF7DBDE000000005D
:1037900096B59AD67DEF7DEF0000000014A5F7BD29
:1037A000FBDE9EF7DBDE00000000000000000000F2
:1037B000000059CE0000000000000000000018C604
:1037C0003CE70000000000000000000018C60000F8
:1037D00000000000000000000000AE7334A5D7BD5B
:1037E0000000000000001084F39CF7BDFBDEFBDE50
:1037F00018C600000000000014A518C6D7BD0000C0
:103800000000AA52AE73B294F7BD38C60000D39C34
:103810009294B294D7BDBAD65DEF5DEFBAD6D7BD5C
:10382000B2940000F39CF7BD38C6F7BDB2944D6B5F
:10383000D39CF7BDFBDEBAD6000055AD75ADF7BD24
:10384000FBDE7DEFBEF7BEF77DEFFBDEF7BD0000D0
:1038500055AD38C6DBDEFBDEF7BDCF7B96B5FBDEB4
:10386000DFFF5DEF0000D7BD59CEFBDEDFFFFFFFBE
:10387000FFFFFFFFFFFFDFFFFBDE0000D7BD9AD693
:103880005DEFDFFFFBDE1084F7BD5DEFFFFF5DEF57
:103890000000F7BDBAD65DEFFFFFFFFFFFFFFFFFA0
:1038A000FFFFFFFF5DEF0000F7BDBAD65DEFFFFF42
:1038B0005DEF1084F7BD5DEFFFFF5DEF0000F7BD2A
:1038C000BAD65DEFFFFFFFFFFFFFFFFFFFFFFFFF28
:1038D0005DEF0000F7BDBAD65DEFFFFF5DEF10842E
:1038E000F7BD5DEFFFFF5DEF0000F7BDBAD65DEFFE
:1038F000FFFFFFFFFFFFFFFFFFFFFFFF5DEF000088
:10390000F7BDBAD65DEFFFFF5DEF108418C65DEF1F
:10391000FFFF5DEF0000F7BDBAD65DEFFFFFFFFFD1
:10392000FFFFFFFFFFFFFFFF5DEF0000F7BDBAD60F
:103930005DEFFFFF5DEFCF7BD7BD3CE7FFFF5DEFA6
:103940000000D7BD79CE3CE7FFFFFFFFFFFFFFFF81
:10395000FFFFFFFF3CE70000F7BD9AD65DEFFFFFDA
:103960003CE7000034A5BAD69EF75DEF00000000EA
:1039700038C6FBDEBEF7FFFFFFFFFFFFFFFFBEF70E
:1039800000000000D7BDBAD65DEF9EF70000000032
:103990000000D7BD1CE75DEFFBDEF7BD000079CE70
:1039A0005DEFDFFFFFFFFFFFDFFF000079CEF7BD18
:1039B000F7BDFBDE5DEF0000000000000000D39CBF
:1039C0009AD65DEF7DEF9AD6000038C6FBDE9EF7F3
:1039D000FFFFFFFF9EF7000038C638C69AD67DEF7E
:1039E0005DEF0000000000000000308438C65DEF8D
:1039F000DFFF1CE70000F7BDBAD67DEFFFFFFFFF3A
:103A00007DEF0000F7BD79CE1CE7DFFF5DEF000022
:103A1000000000000000108418C65DEFFFFF5DEF9E
:103A20000000F7BDBAD65DEFFFFFFFFF5DEF0000BE
:103A3000F7BDBAD65DEFFFFF5DEF000000000000AC
:103A40000000CF7B96B5DBDE5DEFBAD60000F7BD98
:103A5000BAD65DEFFFFFFFFF5DEF0000F7BDBAD6FE
:103A60005DEFFFFF5DEF00000000080C205F00002D
:103A700000000000000000000000000020202020C6
:103A8000202000200000002850500000000000000E
:103A9000000000002828FC2850FC505000000020A6
:103AA00078A8A0603028A8F02000000048A8B050F6
:103AB000283454480000000020505078A8A8906C8A
:103AC00000000040408000000000000000000004F2
:103AD00008101010101010080400004020101010E2
:103AE00010101020400000000020A87070A82000D6
:103AF00000000000202020F820202000000000000E
:103B0000000000000000004040800000000000F8BD
:103B10000000000000000000000000000000004065
:103B200000000008101010202040404080000000DD
:103B300070888888888888700000000020602020B5
:103B4000202020700000000070888810204080F83D
:103B5000000000007088083008088870000000002D
:103B6000103050509078101800000000F88080F05D
:103B70000808887000000000709080F088888870C5
:103B800000000000F89010202020202000000000FD
:103B90007088887088888870000000007088888825
:103BA000780848700000000000002000000000209D
:103BB00000000000000000200000002020000004A1
:103BC0000810204020100804000000000000F80049
:103BD00000F80000000000402010080408102040F9
:103BE00000000000708888102020002000000000E5
:103BF000708898A8A8B88078000000002020305075
:103C0000507848CC00000000F0484870484848F020
:103C100000000000788880808080887000000000AC
:103C2000F0484848484848F000000000F848507004
:103C3000504048F800000000F8485070504040E004
:103C400000000000384880809C8848300000000058
:103C5000CC484878484848CC00000000F820202094
:103C6000202020F8000000007C1010101010109090
:103C7000E0000000EC485060505048EC00000000AC
:103C8000E0404040404044FC00000000D8D8D8D874
:103C9000A8A8A8A800000000DC486868585848E8B0
:103CA0000000000070888888888888700000000004
:103CB000F0484870404040E000000000708888886C
:103CC00088E8987018000000F0484870504848ECA8
:103CD0000000000078888060100888F00000000074
:103CE000F8A820202020207000000000CC48484880
:103CF0004848483000000000CC4848505030202050
:103D000000000000A8A8A87050505050000000000B
:103D1000D8505020205050D800000000D8505020DB
:103D20002020207000000000F8901020204048F86B
:103D300000000038202020202020202038000040D3
:103D400040402020101010080000007010101010CB
:103D50001010101070000020500000000000000043
:103D600000000000000000000000000000FC002037
:103D70000000000000000000000000000000003013
:103D80004838483C00000000C04040704848487037
:103D900000000000000000384840403800000000EB
:103DA000180808384848483C00000000000000306F
:103DB00048784038000000001C202078202020781F
:103DC000000000000000003C48304078443800000B
:103DD000C0404070484848EC0000000020000060EF
:103DE0002020207000000000100000301010101083
:103DF00010E00000C040405C507048EC0000000043
:103E0000E0202020202020F800000000000000F02A
:103E1000A8A8A8A800000000000000F0484848EC4E
:103E2000000000000000003048484830000000005A
:103E3000000000F04848487040E0000000000038F2
:103E400048484838081C0000000000D8604040E0A6
:103E500000000000000000784030087800000000FA
:103E6000002020702020201800000000000000D852
:103E70004848483C00000000000000EC485030205A
:103E800000000000000000A8A870505000000000D2
:103E9000000000D8502050D800000000000000ECC6
:103EA0004850302020C0000000000078102020780A
:103EB0000000001810101020101010101800101022
:103EC0001010101010101010101000602020201082
:103ED00020202020600040A4180000000000000006
:103EE00000001010205F0000000000000000000033
:103EF00000000000000000000000000000000000C2
:103F00000000000000000000000007000F800F808C
:103F10000F800F800F8007000700000000000700DF
:103F200007000700000000000E380E380E380E386B
:103F3000063000000000000000000000000000004B
:103F400000000000000000000C300C300C307FFE40
:103F50007FFE0C300C300C300C307FFE7FFE0C30BE
:103F60000C300C3000000000024002400FF81FF837
:103F70001A401A401FF00FF8025802581FF81FF09D
:103F80000240024000000000000000000E100E3051
:103F90000E7000E001C0038007000E700C70087006
:103FA000000000000000000000000F0019801980D0
:103FB00019800F000F080F9819F818F018E019F081
:103FC0000F98000000000000000007000700070035
:103FD0000E000000000000000000000000000000D3
:103FE0000000000000000000000000F001C003809D
:103FF00007000E000E000E000E000700038001C037
:1040000000F000000000000000000F00038001C06D
:1040100000E0007000700070007000E001C00380DC
:104020000F000000000000000000018011880990CE
:1040300007E007E03FFC3FFC07E007E0099011883C
:10404000018000000000000000000000000001806E
:10405000018001800FF00FF00180018001800000DD
:104060000000000000000000000000000000000050
:104070000000000000000000000000000700070032
:1040800007000E000000000000000000000000001B
:10409000000000001FF81FF80000000000000000F2
:1040A0000000000000000000000000000000000010
:1040B00000000000000000000000000007000700F2
:1040C0000700000000000000000000020006000ED3
:1040D000001C0038007000E001C0038007000E00E3
:1040E0001C0000000000000000000FF01C381C78CD
:1040F0001CF81CF81DB81DB81F381F381E381C3896
:104100000FF000000000000000000180018003802B
:104110001F801F800380038003800380038003804F
:104120001FF000000000000000000FE01C701C38B1
:104130000038007000E001C0038007000E381C3812
:104140001FF800000000000000000FE01C701C3889
:104150000038007003C003C0007000381C381C70A9
:104160000FE0000000000000000000E001E003E0BC
:1041700006E00CE018E01FF81FF800E000E000E0A7
:1041800003F800000000000000001FF81C001C00E5
:104190001C001C001FE01FF0007800381C381C7049
:1041A0000FE0000000000000000003E007000E0028
:1041B0001C001C001FF01FF81C381C381C381C3851
:1041C0000FF000000000000000001FFC1C1C1C1C65
:1041D0001C1C001C0038007000E001C0038003803C
:1041E000038000000000000000000FF01C381C38A5
:1041F0001C381F3807E007E01CF81C381C381C3836
:104200000FF000000000000000000FF01C381C3808
:104210001C381C381FF80FF800380038007000E018
:1042200007C0000000000000000000000000038044
:1042300003800380000000000380038003800000EF
:1042400000000000000000000000000000000380EB
:1042500003800380000000000380038003800700C8
:104260000000000000000000007000E001C00380BA
:1042700007000E001C001C000E000700038001C098
:1042800000E00070000000000000000000000000DE
:104290003FFC3FFC000000003FFC3FFC0000000032
:1042A00000000000000000001C000E00070003805A
:1042B00001C000E00070007000E001C00380070052
:1042C0000E001C000000000003C00FF01E7818381C
:1042D0000038007000E001C001C00000000001C013
:1042E00001C001C0000000000FF81C1C1C1C1C1C9D
:1042F0001C1C1CFC1CFC1CFC1CFC1C001C001C00D2
:104300001FF007F800000000000003C007E00E7077
:104310001C381C381C381C381FF81C381C381C383A
:104320001C3800000000000000001FF00E380E389E
:104330000E380E380FF00FF00E380E380E380E38DB
:104340001FF0000000000000000007F00E381C38CD
:104350001C001C001C001C001C001C001C380E381B
:1043600007F000000000000000001FE00E700E3893
:104370000E380E380E380E380E380E380E380E70D5
:104380001FE000000000000000001FF80E180E08DB
:104390000E000E300FF00FF00E300E000E080E184B
:1043A0001FF800000000000000001FF80E180E08A3
:1043B0000E000E300FF00FF00E300E000E000E004B
:1043C0001F00000000000000000007F00E381C383D
:1043D0001C381C001C001C001CF81C381C380E3833
:1043E00007F800000000000000001C701C701C702A
:1043F0001C701C701FF01FF01C701C701C701C7057
:104400001C7000000000000000000FE0038003802B
:104410000380038003800380038003800380038084
:104420000FE0000000000000000001FC00700070C0
:10443000007000700070007038703870387038701C
:104440000FE000000000000000001E380E380E7063
:104450000EE00FC00F800F800FC00EE00E700E3800
:104460001E3800000000000000001F000E000E00BB
:104470000E000E000E000E000E000E080E180E3874
:104480001FF800000000000000001C1C1E3C1F7CE8
:104490001FFC1FFC1DDC1C9C1C1C1C1C1C1C1C1C55
:1044A0001C1C00000000000000001C1C1C1C1E1C2A
:1044B0001F1C1F9C1DDC1CFC1C7C1C3C1C1C1C1C95
:1044C0001C1C000000000000000003E007F00E3894
:1044D0001C1C1C1C1C1C1C1C1C1C1C1C0E3807F04F
:1044E00003E000000000000000001FF00E380E384E
:1044F0000E380E380FF00FF00E000E000E000E00FA
:104500001F00000000000000000003E00F780E38DC
:104510001C1C1C1C1C1C1C1C1C7C1CFC0FF80FF8FD
:10452000003800FC0000000000001FF00E380E38BC
:104530000E380E380FF00FF00E700E380E380E38A1
:104540001E3800000000000000000FF01C381C386E
:104550001C381C000FE007F000381C381C381C38D1
:104560000FF000000000000000001FFC19CC11C477
:1045700001C001C001C001C001C001C001C001C033
:1045800007F000000000000000001C701C701C7090
:104590001C701C701C701C701C701C701C701C70BB
:1045A0000FE000000000000000001C701C701C7078
:1045B0001C701C701C701C701C701C700EE007C0FE
:1045C000038000000000000000001C1C1C1C1C1CC0
:1045D0001C1C1C1C1C9C1C9C1C9C0FF80FF80770BE
:1045E000077000000000000000001C701C701C70B0
:1045F0000EE007C00380038007C00EE01C701C7033
:104600001C7000000000000000001C701C701C707A
:104610001C701C700EE007C00380038003800380C1
:104620000FE000000000000000001FF81C381838E0
:10463000107000E001C0038007000E081C181C3831
:104640001FF8000000000000000007F0070007004E
:104650000700070007000700070007000700070022
:1046600007F00000000000000000100018001C000F
:104670000E000700038001C000E000700038001C3D
:104680000007000000000000000007F0007000704C
:10469000007000700070007000700070007000709A
:1046A00007F0000000000000018003C007E00E706A
:1046B0001C380000000000000000000000000000A6
:1046C00000000000000000000000000000000000EA
:1046D00000000000000000000000000000000000DA
:1046E00000007FFF7FFF000000001C001C0007008F
:1046F00007000000000000000000000000000000B3
:1047000000000000000000000000000000000000A9
:1047100000000FE0007000700FF01C701C701C7027
:104720000FD800000000000000001E000E000E0068
:104730000E000FF00E380E380E380E380E380E38C8
:104740001BF000000000000000000000000000005E
:1047500000000FE01C701C701C001C001C701C7002
:104760000FE0000000000000000000F80070007082
:1047700000700FF01C701C701C701C701C701C7082
:104780000FD8000000000000000000000000000042
:1047900000000FE01C701C701FF01C001C701C70CF
:1047A0000FE0000000000000000003E00770077049
:1047B000070007001FE01FE00700070007000700D1
:1047C0001FC000000000000000000000000000000A
:1047D00000000FD81C701C701C701C700FF007F0CC
:1047E00000701C700FE0000000001E000E000E00A4
:1047F0000E000EF00F380F380E380E380E380E3807
:104800001E38000000000000000001C001C001C00F
:1048100000000FC001C001C001C001C001C001C043
:104820000FF8000000000000000000700070007031
:10483000000003F0007000700070007000700070E5
:104840001C700CF007E0000000001E000E000E00BF
:104850000E000E380E700EE00FC00EE00E700E3817
:104860001E3800000000000000000FC001C001C0A1
:1048700001C001C001C001C001C001C001C001C030
:104880000FF8000000000000000000000000000021
:1048900000001FF81C9C1C9C1C9C1C9C1C9C1C9CB1
:1048A0001C9C000000000000000000000000000050
:1048B00000001FE01C701C701C701C701C701C70B1
:1048C0001C7000000000000000000000000000005C
:1048D00000000FE01C701C701C701C701C701C70A1
:1048E0000FE00000000000000000000000000000D9
:1048F00000001BF00E380E380E380E380E380FF050
:104900000E000E001F00000000000000000000006C
:1049100000001FB038E038E038E038E038E01FE051
:1049200000E000E001F000000000000000000000D6
:1049300000001EF00FF80F380E000E000E000E00E3
:104940001F00000000000000000000000000000048
:1049500000000FE01C301C300F8003E0187018704E
:104960000FE0000000000000000000000100030054
:1049700007001FF007000700070007000770077017
:1049800003E0000000000000000000000000000044
:1049900000001C701C701C701C701C701C701C7043
:1049A0000FD8000000000000000000000000000020
:1049B00000001C701C701C701C701C700EE007C086
:1049C0000380000000000000000000000000000064
:1049D00000001C1C1C1C1C1C1C9C1C9C0FF8077041
:1049E0000770000000000000000000000000000050
:1049F00000001CE01CE00FC0078007800FC01CE017
:104A00001CE00000000000000000000000000000AA
:104A100000000E380E380E380E380E3807F003E05E
:104A200000E001C01F800000000000000000000046
:104A300000001FE018E011C0038007000E201C607A
:104A40001FE0000000000000000001F80380038068
:104A5000038007001C001C00070003800380038004
:104A600001F800000000000001C001C001C001C049
:104A700001C001C001C001C001C001C001C001C02E
:104A800001C001C00000000000001F8001C001C083
:104A900001C000E00038003800E001C001C001C0E2
:104AA0001F8000000000000000001F1C3B9C39DC40
:104AB00038F80000000000000000000000000000C6
:104AC0000000000000002032300A0000000000005A
:104AD000000000FFFE0001FFFF0003FFFF8001FF59
:104AE000FF600CFFFEF01E0001F83F0001F83F00E0
:104AF00001F83F0001F83F0001F83F0001F83F00D6
:104B000001F83F0001F83F0001F83F0001F83F00C5
:104B100001F83F0001F83F0001F83F0001F83E00B6
:104B20000078380000182000000800000000200075
:104B30000000380000183E0000783F0001F83F00F8
:104B400001F83F0001F83F0001F83F0001F83F0085
:104B500001F83F0001F83F0001F83F0001F83F0075
:104B600001F83F0001F83F0001F83F0001F83F0065
:104B700001F81E0000F00CFFFE6001FFFF0003FFC4
:104B8000FF8001FFFF0000FFFE00000000000000AA
:104B90000000000000000000000000000000000015
:104BA00000000000000000000060000000F00000B5
:104BB00001F8000001F8000001F8000001F8000011
:104BC00001F8000001F8000001F8000001F8000001
:104BD00001F8000001F8000001F8000001F80000F1
:104BE00001F8000001F80000007800000018000043
:104BF0000008000000000000000000000018000095
:104C00000078000001F8000001F8000001F8000041
:104C100001F8000001F8000001F8000001F80000B0
:104C200001F8000001F8000001F8000001F80000A0
:104C300001F8000001F8000001F8000000F0000099
:104C40000060000000000000000000000000000004
:104C50000000000000000000000000000000000054
:104C6000000000FFFE0001FFFF0003FFFF8001FFC7
:104C7000FF6000FFFEF0000001F8000001F80000F6
:104C800001F8000001F8000001F8000001F8000040
:104C900001F8000001F8000001F8000001F8000030
:104CA00001F8000001F8000001F8000001F8000020
:104CB000007801FFFE1803FFFF880FFFFFE027FFCA
:104CC000FFC039FFFF003E0000003F0000003F0032
:104CD00000003F0000003F0000003F0000003F00D8
:104CE00000003F0000003F0000003F0000003F00C8
:104CF00000003F0000003F0000003F0000003F00B8
:104D000000001E0000000CFFFE0001FFFF0003FF7B
:104D1000FF8001FFFF0000FFFE0000000000000018
:104D20000000000000000000000000FFFE0001FF86
:104D3000FF0003FFFF8001FFFF6000FFFEF00000A7
:104D400001F8000001F8000001F8000001F800007F
:104D500001F8000001F8000001F8000001F800006F
:104D600001F8000001F8000001F8000001F800005F
:104D700001F8000001F80000007801FFFE1803FFB1
:104D8000FF880FFFFFE007FFFFC001FFFF180000D3
:104D90000078000001F8000001F8000001F80000B0
:104DA00001F8000001F8000001F8000001F800001F
:104DB00001F8000001F8000001F8000001F800000F
:104DC00001F8000001F8000001F8000000F000FF09
:104DD000FE6001FFFF0003FFFF8001FFFF0000FFF7
:104DE000FE000000000000000000000000000000C5
:104DF00000000000000000000000000000000000B3
:104E000000600C0000F01E0001F83F0001F83F00B8
:104E100001F83F0001F83F0001F83F0001F83F00B2
:104E200001F83F0001F83F0001F83F0001F83F00A2
:104E300001F83F0001F83F0001F83F0001F83E0093
:104E4000007839FFFE1823FFFF880FFFFFE007FF00
:104E5000FFC001FFFF1800000078000001F800000B
:104E600001F8000001F8000001F8000001F800005E
:104E700001F8000001F8000001F8000001F800004E
:104E800001F8000001F8000001F8000001F800003E
:104E900001F8000000F000000060000000000000C9
:104EA0000000000000000000000000000000000002
:104EB0000000000000000000000000FFFE0001FFF5
:104EC000FF0003FFFF8001FFFF000CFFFE001E003C
:104ED00000003F0000003F0000003F0000003F00D6
:104EE00000003F0000003F0000003F0000003F00C6
:104EF00000003F0000003F0000003F0000003F00B6
:104F000000003F0000003E00000039FFFE0023FFCC
:104F1000FF800FFFFFE007FFFFC001FFFF18000049
:104F20000078000001F8000001F8000001F800001E
:104F300001F8000001F8000001F8000001F800008D
:104F400001F8000001F8000001F8000001F800007D
:104F500001F8000001F8000001F8000000F000FF77
:104F6000FE6001FFFF0003FFFF8001FFFF0000FF65
:104F7000FE00000000000000000000000000000033
:104F8000000000FFFE0001FFFF0003FFFF8001FFA4
:104F9000FF000CFFFE001E0000003F0000003F006D
:104FA00000003F0000003F0000003F0000003F0005
:104FB00000003F0000003F0000003F0000003F00F5
:104FC00000003F0000003F0000003F0000003E00E6
:104FD000000039FFFE0023FFFF800FFFFFE027FFE7
:104FE000FFC039FFFF183E0000783F0001F83F0086
:104FF00001F83F0001F83F0001F83F0001F83F00D1
:1050000001F83F0001F83F0001F83F0001F83F00C0
:1050100001F83F0001F83F0001F83F0001F83F00B0
:1050200001F81E0000F00CFFFE6001FFFF0003FF0F
:10503000FF8001FFFF0000FFFE00000000000000F5
:105040000000000000000000000000FFFE0001FF63
:10505000FF0003FFFF8001FFFF6000FFFEF0000084
:1050600001F8000001F8000001F8000001F800005C
:1050700001F8000001F8000001F8000001F800004C
:1050800001F8000001F8000001F8000001F800003C
:1050900001F8000001F8000000780000001800008E
:1050A00000080000000000000000000000180000E0
:1050B0000078000001F8000001F8000001F800008D
:1050C00001F8000001F8000001F8000001F80000FC
:1050D00001F8000001F8000001F8000001F80000EC
:1050E00001F8000001F8000001F8000000F00000E5
:1050F0000060000000000000000000000000000050
:10510000000000000000000000000000000000009F
:10511000000000FFFE0001FFFF0003FFFF8001FF12
:10512000FF600CFFFEF01E0001F83F0001F83F0099
:1051300001F83F0001F83F0001F83F0001F83F008F
:1051400001F83F0001F83F0001F83F0001F83F007F
:1051500001F83F0001F83F0001F83F0001F83E0070
:10516000007839FFFE1823FFFF880FFFFFE027FFBD
:10517000FFC039FFFF183E0000783F0001F83F00F4
:1051800001F83F0001F83F0001F83F0001F83F003F
:1051900001F83F0001F83F0001F83F0001F83F002F
:1051A00001F83F0001F83F0001F83F0001F83F001F
:1051B00001F81E0000F00CFFFE6001FFFF0003FF7E
:1051C000FF8001FFFF0000FFFE0000000000000064
:1051D0000000000000000000000000FFFE0001FFD2
:1051E000FF0003FFFF8001FFFF600CFFFEF01E00C9
:1051F00001F83F0001F83F0001F83F0001F83F00CF
:1052000001F83F0001F83F0001F83F0001F83F00BE
:1052100001F83F0001F83F0001F83F0001F83F00AE
:1052200001F83F0001F83E00007839FFFE1823FF27
:10523000FF880FFFFFE007FFFFC001FFFF1800001E
:105240000078000001F8000001F8000001F80000FB
:1052500001F8000001F8000001F8000001F800006A
:1052600001F8000001F8000001F8000001F800005A
:1052700001F8000001F8000001F8000000F000FF54
:10528000FE6001FFFF0003FFFF8001FFFF0000FF42
:10529000FE00000000000000000070BDB0C5D1C5D8
:1052A00050B5CFAC10B590BDD1C5B1C5B0C590BD9E
:1052B00070BD2FB5CEA470BD90C54D94AEA4B0CD39
:1052C000B0C570BD50BDEEAC0FB590C5EFAC2D8C28
:1052D000AE9C6FBD70C570C591C5B1CDB0C54FBD99
:1052E0002FB550BDB1C570BD50BD91C591C550BD64
:1052F0000FB50FAD2FB5B0CD91C56E94CFA4D1C56C
:1053000050B54FB590BD90BD90C5B0CD70C50FAD37
:1053100030B570BD70B5B0C5B0CDD0CD70BDEFB4F7
:105320002FB5D0C5F1CD30B5CEAC70BDB1C50FAD88
:10533000CFAC50B5D1CD11D670C58E9C0FADD1CDAF
:1053400050BD30B5D1CD32D631D6D1D511D611D64A
:1053500050BD0FAD90BDD1CD11D60FAD10B550C51C
:10536000B0CD90C50FB5AEA40FADB0C550B5CEA4AD
:1053700070C532DEF1D5B1CD2FB5AEA42FB532DE7A
:1053800012D6B1CDB1CD12D632DE11D6F1CD70BD6F
:105390006E9C8EA4D1CD12D612D650BD70BD90C5D4
:1053A00090C54FBD2FB550BDD1CDF1D52FB5AEA411
:1053B000D1CD32DE50BD0FADEFACCFAC30B5F0CDBE
:1053C000F1CDB0C570C591C570C550B570BD2FB5D4
:1053D0006E9C8E9CB1CDD1CD90C5D1CDD0CD90C598
:1053E0000FAD0FADB1C512D632DEF1D530BD2FB540
:1053F000B0C5D1C50FA5CEA4CFACAFA430AD90BD84
:1054000070BD4FBD70C570C52FB5CFA4EFAC4FB503
:105410000FB50FB590C570BD2FB52FADB0C5B0CDD0
:105420008EA48E9C91C5B1C570BD50B5B0C5F1CDEF
:10543000D1CDB1CDB1C54FB58FA48E9C10B5D1CD16
:1054400090C590C5F2CDD1CD70BD10B5EFAC0FB504
:1054500091C5F2D5F1D590C570BD50BD91C590C52F
:10546000AEA4EFAC90C50FB58E9C4FB5D1CDD1CDCC
:10547000B1C570C550BDCFACCFAC0FAD91C5D1CDCE
:10548000D1CD90BD70BDB0C590BDEFACEFAC90C5B7
:10549000F1CD32DE11D670BDCFAC12DED1CD90BDD4
:1054A0000FAD50BDD1D50FB5AEA4B0C5B0C50FADD1
:1054B00050BD4FBDAFA48FA42FB512CEB0CD0FB548
:1054C00050B50FAD8EA44FB570BDCFA40FB510D69B
:1054D000D1CDB1C5F1D530BDAE9C32DE31D6B1C52E
:1054E00030B570BDF1D5B1CD70C5B1C570BDCEA41C
:1054F0000FB570BD30B530B590C552DE4FB50C8CD0
:105500008E9CCFACAFA470BDD1C570BD70C5D1CDE0
:1055100090C54FBD70BDB0C5D0C5F1D590C530B5F3
:10552000CFA44FB5B1CD91C550BD70BD70BD2FB5E5
:10553000EFACCEA4CEA410B590C5F1CD4FBDAEA4B6
:1055400010AD91C5B1C5D0CDF1CDF1CDD0CDB1C5A6
:1055500070BD30B510AD70BDB0CDB1CD2FB58E9C46
:10556000AF9C2FB58FC50FADCEA42FB5B1CDB1CDAA
:105570002FB5AE9CAEA410B570BD4FB52FB550BDC4
:10558000B1C532D632DED1CDB0C5D1C5D0CD70BD1A
:1055900050B5EFACAFA4CFACEFB411D690C5EFAC23
:1055A0000FAD91BDD1C50FADAE9C0FB5D1CD11D60C
:1055B00011D6D1CDB1C5B1CD90C5EFA48E94CFA4F5
:1055C0004FBDB0CDB1CD30BD10B54FBD50BD0FAD4D
:1055D000CEA46D9C2D948EA4EFACB1C54FB5EFACAD
:1055E00070BDF1CDF1CDB1C590C590C5B1C5F1CDBE
:1055F00032D6F1CD50BDB1CDB0CDEEA4CEA42FADFD
:105600004FBD4FBD70BD50BD0FB52FB570BDB1C5FD
:1056100070C58FA4ED83CFA490BD90BD2FB510B5FC
:10562000F1CD32DED1CDD1CDD0CD50BD30B570BDB4
:10563000B1CD70BDEFA470BDB1CD2FB570C5F1CDAA
:1056400091C550BD50B591C570BD50BDD1CD72DE74
:1056500011D60FAD4D940FB512D6B0C5D0CD11D621
:1056600031D611D6B1C510AD6E942E8CAEA44FB507
:1056700050BD30BD90C590BD6FBDB1CDF1CD12D63E
:1056800031D690BDCFAC0FB590BDD1C531D632DE8D
:1056900070BDAEA4CFAC90C5F1D570BDD0CD11D644
:1056A00070BDEFACCFA4CFA4CF9C6E9C8FA4CFAC29
:1056B0000FAD70BD90C50FADCEA4B0CDF2D5B1CDBC
:1056C000F2D5B0C5EEACEFAC50BDD1D531D6B1CD31
:1056D00030BD0FB5B0C5D1CDD1CDCFA42FB550BD04
:1056E000CFA42D8C4D942FB5D1CD90C52FB5EFB44F
:1056F0002FB54FBD50BDAEA48FA4B1CDD1CD6FC5D8
:1057000090C590C570BD0FB570C5F1CDF1CD70BD20
:1057100070C591C5B1CDB0CDB1CD8E9C8E9CEFA49E
:1057200030B50FADCFA450B5B0CD90C5D1CDD1CD52
:10573000EEA4CEA4D1CDB0C570BDF1D532DED1CDB1
:1057400050B530BD90C5F1D531D631D6D1C570BD7B
:1057500090C570BDEEAC70BD11D60FAD50B590C503
:1057600011D670BD6E9C8E9C4FB5D1D5D2CD4FB5A4
:10577000CEA410B5F1D511DE11D632D652DED0C589
:105780004D944E9C90C511D6F1CDB1C52FB5AEA4A8
:10579000CFAC30B510B530B550BDB1C5F1D552DE86
:1057A00052DE70BD4D944D9450B531D690CDCFACF6
:1057B0000FADB0C5F1D5F1D5D1CDD1CDD1CD2FB56E
:1057C000ED83ED834FB590BD70BD90BDCEA40D8C23
:1057D0006E9C70BD91C50FAD8E9C90C5B0CDD1CDE6
:1057E00070BD70BDB1CDD1CDF1D532D6F1D590C55A
:1057F000B0C5F1D5B1CD70BD4FB56FBD0FB58FA49C
:105800008EA4AE9CAE9CEEAC90BDF1CD50BDAEA4CE
:105810004FBDF1CD90C50FB5AEA490C590C5B0C534
:105820004FB590C532DE11D6B1CDD1CD70BD2FB5FB
:10583000B1CDB0C5EFACEFAC50B54FB52FB550BD45
:1058400091C5B0C52FB50FAD50BDB1CDD1CD70BD97
:105850002FB50FB570BD4FBD30B5F2D5F1CDD0C568
:105860004FBD90C5D1CD70BD50BDD0CD2FB56E9C74
:105870000FB54FBD8E9C10B5B1C550BD90BDD1CDFB
:1058800012D632DE11DE91C550B590C5F1CD91C56D
:10589000CFA4AEA470BDD1CDD1CDF1D5D2CD90C520
:1058A0002FB52FB590BD70BD90C5D0CD70C5CFAC14
:1058B000CEAC10B551BD90C5D1CD70BD0FADEFAC24
:1058C00091CD52E652DEB0C590BD11D6B1CD2FB507
:1058D0002FB5B1C5F1CD11DE32DEF1CDD0CDB0C5E1
:1058E00070BD2FB52FB591C5D1C54FB50FAD30B532
:1058F00090BD90BD10B5CFA4CEA450B5CFAC4E9CFA
:1059000070C532DEF2D550BD50B590BD70BD0FB53B
:10591000B1CD11D6D0CDF1CD31DE90C590C590C5B9
:10592000D1C590C550BDF1CDF1CDEFACAE9C30B539
:10593000B1CDB0C50FAD6E946D9C4FB550BD0FB5D8
:1059400070BDD1C590BD30B5EFACEFACF0AC50BD83
:10595000D0CD90C5CFAC50BDD1CD50BD2FB570BD11
:10596000B1C5F1D511D632DE11D6D1CD30BDCFAC17
:105970000FAD6FBDD0D591CD71BDD0C511CEF1CDDC
:1059800070BDCFAC0FAD70BD90C52FB5CEA410B516
:10599000B0C52FB52D8C8FA490BD70BD70BD70BDEE
:1059A000B0C5D1D5D1CDD1CDF1D5F1CD70C5EFAC4C
:1059B0002FB570C5F2D511D6F1CD70BD8FBDD0C554
:1059C00050B5EFACCFAC30B590C590C570BD50B5FB
:1059D0000FB5AE9C4D940FB5B0CDD1CDB0C590C52F
:1059E000D1C5B1C550BD70C5B1CDB1C54FBD4FB565
:1059F000B0C5B1C590C5D0CDB1C5EFACAEA430BD7A
:105A000050BD2FB5CEA4CFAC70BDF1CDF1CD90BDC2
:105A1000AEA44E94AFA490CD31DE852A0523262B6B
:105A2000852AE421242AC522452B252BE52AA62AEE
:105A3000A62A252AC421C52A05234311C419452BAA
:105A4000E52AA52A852A0522452AE52A441A231192
:105A5000A321852AC62AE52AE62A452B052B852A75
:105A60002522A522E52AA522E52A452B642222111A
:105A7000C419652A642A4623462B6319E421252B81
:105A800065226522E522E52AE522052BE422641A37
:105A90004522862AA62A052B262B652BC6220522FF
:105AA0004422252BA52B8522052265228211400048
:105AB000A1082522662B6523642264214422452304
:105AC0008522652A452B052CC523452B862BA62B25
:105AD000A4222422C522652BA62BE4214522C52A17
