:100000000C94570D0C94830D0C94830D0C94830D5C
:100010000C94830D0C94830D0C94830D0C94830D20
:100020000C94830D0C94830D0C94830D0C94830D10
:100030000C94830D0C94830D0C94830D0C94830D00
:100040000C94830D0C94830D0C94830D0C94830DF0
:100050000C94830D0C94830D0C94830D0C94422FFF
:100060000C94830D0C94830D0C94830D0C94830DD0
:100070000C94830D0C94830D0C94830D0C94830DC0
:100080000C94830D0C94830D0C94830D0C94830DB0
:100090000C94830D0C94830D0C94830D0C94830DA0
:1000A0000C94830D0C94830D0C94830D0C94830D90
:1000B0000C94830D0C94830D0C94830D0C94830D80
:1000C0000C94830D0C94830D0C94830D0C94830D70
:1000D0000C94830D0C94830D0C94830D0C94830D60
:1000E0000C94830DA910CF10001194119411941148
:1000F0001A11D211A910D2114411D211571157114E
:100100007E117E1100119411941100115711D2111A
:100110009411B111D211D211D211D211D211FD11FB
:10012000AA12461463155716941794176F19D71A05
:10013000E61FE41B3E1DAB1D73217C222D242D24C4
:1001400063152E252E2563154F238926291852273E
:100150002128272A4E29E02A292C882D080C205FE7
:10016000000000000000000000000000000020204F
:100170002020202000200000002850500000000017
:100180000000000000002828FC2850FC505000000F
:10019000002078A8A0603028A8F02000000048A81F
:1001A000B050283454480000000020505078A8A8CF
:1001B000906C000000404080000000000000000043
:1001C0000004081010101010100804000040201047
:1001D000101010101020400000000020A87070A81F
:1001E000200000000000202020F820202000000037
:1001F00000000000000000000040408000000000FF
:1002000000F80000000000000000000000000000F6
:1002100000400000000810101020204040408000E6
:10022000000070888888888888700000000020603E
:1002300020202020207000000000708888102040BE
:1002400080F80000000070880830080888700000FE
:100250000000103050509078101800000000F88016
:1002600080F00808887000000000709080F0888896
:10027000887000000000F89010202020202000004E
:10028000000070888870888888700000000070887E
:1002900088887808487000000000000020000000F6
:1002A00000200000000000000020000000202000CE
:1002B0000004081020402010080400000000000086
:1002C000F80000F8000000000040201008040810AA
:1002D00020400000000070888810202000200000CE
:1002E0000000708898A8A8B880780000000020203E
:1002F0003050507848CC00000000F0484870484822
:1003000048F00000000078888080808088700000BD
:100310000000F0484848484848F000000000F8480D
:100320005070504048F800000000F84850705040AD
:1003300040E000000000384880809C884830000081
:100340000000CC484878484848CC00000000F8201D
:100350002020202020F8000000007C101010101039
:100360001090E0000000EC485060505048EC000055
:100370000000E0404040404044FC00000000D8D86D
:10038000D8D8A8A8A8A800000000DC486868585879
:1003900048E800000000708888888888887000001D
:1003A0000000F0484870404040E0000000007088C5
:1003B000888888E8987018000000F0484870504815
:1003C00048EC0000000078888060100888F0000089
:1003D0000000F8A820202020207000000000CC4859
:1003E00048484848483000000000CC484850503049
:1003F000202000000000A8A8A87050505050000015
:100400000000D8505020205050D800000000D85094
:1004100050202020207000000000F8901020204084
:1004200048F800000038202020202020202038001C
:1004300000404040202010101008000000701010F4
:10044000101010101010700000205000000000006C
:10045000000000000000000000000000000000FCA0
:10046000002000000000000000000000000000006C
:1004700000304838483C00000000C0404070484808
:10048000487000000000000000384840403800007C
:100490000000180808384848483C000000000000E8
:1004A000003048784038000000001C2020782020D0
:1004B0002078000000000000003C483040784438BC
:1004C0000000C0404070484848EC00000000200098
:1004D000006020202070000000001000003010108C
:1004E000101010E00000C040405C507048EC00006C
:1004F0000000E0202020202020F800000000000064
:1005000000F0A8A8A8A800000000000000F04848DB
:1005100048EC00000000000000304848483000006F
:100520000000000000F04848487040E00000000073
:10053000003848484838081C0000000000D86040D7
:1005400040E0000000000000007840300878000023
:100550000000002020702020201800000000000073
:1005600000D84848483C00000000000000EC48501B
:10057000302000000000000000A8A87050500000CB
:100580000000000000D8502050D8000000000000FB
:1005900000EC4850302020C00000000000781020FF
:1005A00020780000001810101020101010101800F3
:1005B00010101010101010101010101000602020DB
:1005C000201020202020600040A41800000000001F
:1005D000000000001010205F00000000000000007C
:1005E000000000000000000000000000000000000B
:1005F00000000000000000000000000007000F8065
:100600000F800F800F800F800700070000000000A0
:10061000070007000700000000000E380E380E38F3
:100620000E3806300000000000000000000000004E
:10063000000000000000000000000C300C300C3006
:100640007FFE7FFE0C300C300C300C307FFE7FFEC6
:100650000C300C300C3000000000024002400FF85B
:100660001FF81A401A401FF00FF8025802581FF8DE
:100670001FF00240024000000000000000000E10C9
:100680000E300E7000E001C0038007000E700C7089
:100690000870000000000000000000000F0019803A
:1006A000198019800F000F080F9819F818F018E03A
:1006B00019F00F980000000000000000070007007C
:1006C00007000E0000000000000000000000000015
:1006D00000000000000000000000000000F001C069
:1006E000038007000E000E000E000E0007000380BE
:1006F00001C000F000000000000000000F000380B7
:1007000001C000E0007000700070007000E001C0E7
:1007100003800F000000000000000000018011882D
:10072000099007E007E03FFC3FFC07E007E0099085
:10073000118801800000000000000000000000009F
:100740000180018001800FF00FF0018001800180A5
:100750000000000000000000000000000000000099
:100760000000000000000000000000000000070082
:10077000070007000E00000000000000000000005D
:100780000000000000001FF81FF80000000000003B
:100790000000000000000000000000000000000059
:1007A0000000000000000000000000000000070042
:1007B0000700070000000000000000000002000623
:1007C000000E001C0038007000E001C0038007002C
:1007D0000E001C0000000000000000000FF01C389C
:1007E0001C781CF81CF81DB81DB81F381F381E389F
:1007F0001C380FF0000000000000000001800180A4
:1008000003801F801F800380038003800380038098
:1008100003801FF000000000000000000FE01C70CB
:100820001C380038007000E001C0038007000E385B
:100830001C381FF800000000000000000FE01C70D2
:100840001C380038007003C003C0007000381C382A
:100850001C700FE0000000000000000000E001E05C
:1008600003E006E00CE018E01FF81FF800E000E0ED
:1008700000E003F800000000000000001FF81C006A
:100880001C001C001C001FE01FF0007800381C3802
:100890001C700FE0000000000000000003E00700F3
:1008A0000E001C001C001FF01FF81C381C381C38E0
:1008B0001C380FF000000000000000001FFC1C1C92
:1008C0001C1C1C1C001C0038007000E001C00380D0
:1008D0000380038000000000000000000FF01C38BF
:1008E0001C381C381F3807E007E01CF81C381C387F
:1008F0001C380FF000000000000000000FF01C3852
:100900001C381C381C381FF80FF8003800380070ED
:1009100000E007C000000000000000000000000030
:1009200003800380038000000000038003800380B5
:1009300000000000000000000000000000000000B7
:100940000380038003800000000003800380038095
:1009500007000000000000000000007000E001C07F
:10096000038007000E001C001C000E00070003801F
:1009700001C000E000700000000000000000000066
:1009800000003FFC3FFC000000003FFC3FFC00007B
:10099000000000000000000000001C000E00070026
:1009A000038001C000E00070007000E001C003801F
:1009B00007000E001C000000000003C00FF01E78AE
:1009C00018380038007000E001C001C000000000CD
:1009D00001C001C001C0000000000FF81C1C1C1C5D
:1009E0001C1C1C1C1CFC1CFC1CFC1CFC1C001C00FF
:1009F0001C001FF007F800000000000003C007E023
:100A00000E701C381C381C381C381FF81C381C3859
:100A10001C381C3800000000000000001FF00E38D9
:100A20000E380E380E380FF00FF00E380E380E3824
:100A30000E381FF0000000000000000007F00E3824
:100A40001C381C001C001C001C001C001C001C3856
:100A50000E3807F000000000000000001FE00E70DC
:100A60000E380E380E380E380E380E380E380E3856
:100A70000E701FE000000000000000001FF80E18BC
:100A80000E080E000E300FF00FF00E300E000E08A4
:100A90000E181FF800000000000000001FF80E18DC
:100AA0000E080E000E300FF00FF00E300E000E008C
:100AB0000E001F00000000000000000007F00E38CC
:100AC0001C381C381C001C001C001CF81C381C386E
:100AD0000E3807F800000000000000001C701C70B9
:100AE0001C701C701C701FF01FF01C701C701C70A0
:100AF0001C701C7000000000000000000FE003806C
:100B000003800380038003800380038003800380CD
:100B100003800FE0000000000000000001FC0070F6
:100B2000007000700070007000703870387038709D
:100B300038700FE000000000000000001E380E3882
:100B40000E700EE00FC00F800F800FC00EE00E7011
:100B50000E381E3800000000000000001F000E00CC
:100B60000E000E000E000E000E000E000E080E18F5
:100B70000E381FF800000000000000001C1C1E3C86
:100B80001F7C1FFC1FFC1DDC1C9C1C1C1C1C1C1C3B
:100B90001C1C1C1C00000000000000001C1C1C1C75
:100BA0001E1C1F1C1F9C1DDC1CFC1C7C1C3C1C1CDC
:100BB0001C1C1C1C000000000000000003E007F0EB
:100BC0000E381C1C1C1C1C1C1C1C1C1C1C1C0E3849
:100BD00007F003E000000000000000001FF00E38E6
:100BE0000E380E380E380FF00FF00E000E000E000B
:100BF0000E001F00000000000000000003E00F785E
:100C00000E381C1C1C1C1C1C1C1C1C7C1CFC0FF807
:100C10000FF8003800FC0000000000001FF00E3844
:100C20000E380E380E380FF00FF00E700E380E38EA
:100C30000E381E3800000000000000000FF01C38C5
:100C40001C381C381C000FE007F000381C381C381A
:100C50001C380FF000000000000000001FFC19CC41
:100C600011C401C001C001C001C001C001C001C068
:100C700001C007F000000000000000001C701C70A4
:100C80001C701C701C701C701C701C701C701C7004
:100C90001C700FE000000000000000001C701C70C1
:100CA0001C701C701C701C701C701C701C700EE082
:100CB00007C0038000000000000000001C1C1C1C7A
:100CC0001C1C1C1C1C1C1C9C1C9C1C9C0FF80FF846
:100CD0000770077000000000000000001C701C700E
:100CE0001C700EE007C00380038007C00EE01C707C
:100CF0001C701C7000000000000000001C701C70C4
:100D00001C701C701C700EE007C003800380038001
:100D100003800FE000000000000000001FF81C38F6
:100D20001838107000E001C0038007000E081C187E
:100D30001C381FF8000000000000000007F007004A
:100D4000070007000700070007000700070007006B
:100D5000070007F00000000000000000100018006D
:100D60001C000E000700038001C000E00070003886
:100D7000001C0007000000000000000007F00070E9
:100D800000700070007000700070007000700070E3
:100D9000007007F0000000000000018003C007E0C1
:100DA0000E701C3800000000000000000000000071
:100DB0000000000000000000000000000000000033
:100DC0000000000000000000000000000000000023
:100DD000000000007FFF7FFF000000001C001C00DF
:100DE00007000700000000000000000000000000F5
:100DF00000000000000000000000000000000000F3
:100E0000000000000FE0007000700FF01C701C70FC
:100E10001C700FD800000000000000001E000E0033
:100E20000E000E000FF00E380E380E380E380E3849
:100E30000E381BF000000000000000000000000061
:100E4000000000000FE01C701C701C001C001C70D7
:100E50001C700FE0000000000000000000F80070AF
:100E6000007000700FF01C701C701C701C701C70E7
:100E70001C700FD8000000000000000000000000FF
:100E8000000000000FE01C701C701FF01C001C70A4
:100E90001C700FE0000000000000000003E007707D
:100EA0000770070007001FE01FE0070007000700AA
:100EB00007001FC00000000000000000000000004C
:100EC000000000000FD81C701C701C701C700FF00C
:100ED00007F000701C700FE0000000001E000E0004
:100EE0000E000E000EF00F380F380E380E380E3888
:100EF0000E381E38000000000000000001C001C0D4
:100F000001C000000FC001C001C001C001C001C08C
:100F100001C00FF800000000000000000070007029
:100F20000070000003F0007000700070007000702E
:100F300000701C700CF007E0000000001E000E00A6
:100F40000E000E000E380E700EE00FC00EE00E7098
:100F50000E381E3800000000000000000FC001C065
:100F600001C001C001C001C001C001C001C001C079
:100F700001C00FF8000000000000000000000000A9
:100F8000000000001FF81C9C1C9C1C9C1C9C1C9CB2
:100F90001C9C1C9C000000000000000000000000E1
:100FA000000000001FE01C701C701C701C701C7086
:100FB0001C701C7000000000000000000000000019
:100FC000000000000FE01C701C701C701C701C7076
:100FD0001C700FE000000000000000000000000096
:100FE000000000001BF00E380E380E380E380E3898
:100FF0000FF00E000E001F000000000000000000B7
:10100000000000001FB038E038E038E038E038E099
:101010001FE000E000E001F0000000000000000020
:10102000000000001EF00FF80F380E000E000E003A
:101030000E001F0000000000000000000000000083
:10104000000000000FE01C301C300F8003E018701F
:1010500018700FE000000000000000000000010018
:10106000030007001FF007000700070007000770D4
:10107000077003E000000000000000000000000016
:10108000000000001C701C701C701C701C701C7018
:101090001C700FD8000000000000000000000000DD
:1010A000000000001C701C701C701C701C700EE096
:1010B00007C00380000000000000000000000000E6
:1010C000000000001C1C1C1C1C1C1C9C1C9C0FF801
:1010D0000770077000000000000000000000000022
:1010E000000000001CE01CE00FC0078007800FC05C
:1010F0001CE01CE0000000000000000000000000F8
:10110000000000000E380E380E380E380E3807F08A
:1011100003E000E001C01F800000000000000000AC
:10112000000000001FE018E011C0038007000E203F
:101130001C601FE0000000000000000001F80380B8
:101140000380038007001C001C000700038003804D
:10115000038001F800000000000001C001C001C0D0
:1011600001C001C001C001C001C001C001C001C077
:1011700001C001C001C00000000000001F8001C0CC
:1011800001C001C000E00038003800E001C001C02B
:1011900001C01F8000000000000000001F1C3B9CDD
:1011A00039DC38F8000000000000000000000000FA
:1011B00000000000000000002032300A00000000A3
:1011C0000000000000FFFE0001FFFF0003FFFF80A2
:1011D00001FFFF600CFFFEF01E0001F83F0001F868
:1011E0003F0001F83F0001F83F0001F83F0001F81F
:1011F0003F0001F83F0001F83F0001F83F0001F80F
:101200003F0001F83F0001F83F0001F83F0001F8FE
:101210003E000078380000182000000800000000A0
:1012200020000000380000183E0000783F0001F860
:101230003F0001F83F0001F83F0001F83F0001F8CE
:101240003F0001F83F0001F83F0001F83F0001F8BE
:101250003F0001F83F0001F83F0001F83F0001F8AE
:101260003F0001F81E0000F00CFFFE6001FFFF00D0
:1012700003FFFF8001FFFF0000FFFE0000000000F1
:10128000000000000000000000000000000000005E
:10129000000000000000000000000060000000F0FE
:1012A000000001F8000001F8000001F8000001F85A
:1012B000000001F8000001F8000001F8000001F84A
:1012C000000001F8000001F8000001F8000001F83A
:1012D000000001F8000001F800000078000000188C
:1012E00000000008000000000000000000000018DE
:1012F00000000078000001F8000001F8000001F88B
:10130000000001F8000001F8000001F8000001F8F9
:10131000000001F8000001F8000001F8000001F8E9
:10132000000001F8000001F8000001F8000000F0E2
:10133000000000600000000000000000000000004D
:10134000000000000000000000000000000000009D
:101350000000000000FFFE0001FFFF0003FFFF8010
:1013600001FFFF6000FFFEF0000001F8000001F83F
:10137000000001F8000001F8000001F8000001F889
:10138000000001F8000001F8000001F8000001F879
:10139000000001F8000001F8000001F8000001F869
:1013A0000000007801FFFE1803FFFF880FFFFFE039
:1013B00027FFFFC039FFFF003E0000003F00000094
:1013C0003F0000003F0000003F0000003F00000021
:1013D0003F0000003F0000003F0000003F00000011
:1013E0003F0000003F0000003F0000003F00000001
:1013F0003F0000001E0000000CFFFE0001FFFF0088
:1014000003FFFF8001FFFF0000FFFE00000000005F
:1014100000000000000000000000000000FFFE00CF
:1014200001FFFF0003FFFF8001FFFF6000FFFEF0F0
:10143000000001F8000001F8000001F8000001F8C8
:10144000000001F8000001F8000001F8000001F8B8
:10145000000001F8000001F8000001F8000001F8A8
:10146000000001F8000001F80000007801FFFE18FC
:1014700003FFFF880FFFFFE007FFFFC001FFFF181A
:1014800000000078000001F8000001F8000001F8F9
:10149000000001F8000001F8000001F8000001F868
:1014A000000001F8000001F8000001F8000001F858
:1014B000000001F8000001F8000001F8000000F051
:1014C00000FFFE6001FFFF0003FFFF8001FFFF0040
:1014D00000FFFE000000000000000000000000000F
:1014E00000000000000000000000000000000000FC
:1014F000000000600C0000F01E0001F83F0001F841
:101500003F0001F83F0001F83F0001F83F0001F8FB
:101510003F0001F83F0001F83F0001F83F0001F8EB
:101520003F0001F83F0001F83F0001F83F0001F8DB
:101530003E00007839FFFE1823FFFF880FFFFFE011
:1015400007FFFFC001FFFF1800000078000001F84E
:10155000000001F8000001F8000001F8000001F8A7
:10156000000001F8000001F8000001F8000001F897
:10157000000001F8000001F8000001F8000001F887
:10158000000001F8000000F0000000600000000012
:10159000000000000000000000000000000000004B
:1015A00000000000000000000000000000FFFE003E
:1015B00001FFFF0003FFFF8001FFFF000CFFFE00A3
:1015C0001E0000003F0000003F0000003F00000040
:1015D0003F0000003F0000003F0000003F0000000F
:1015E0003F0000003F0000003F0000003F000000FF
:1015F0003F0000003F0000003E00000039FFFE00F9
:1016000023FFFF800FFFFFE007FFFFC001FFFF1870
:1016100000000078000001F8000001F8000001F867
:10162000000001F8000001F8000001F8000001F8D6
:10163000000001F8000001F8000001F8000001F8C6
:10164000000001F8000001F8000001F8000000F0BF
:1016500000FFFE6001FFFF0003FFFF8001FFFF00AE
:1016600000FFFE000000000000000000000000007D
:101670000000000000FFFE0001FFFF0003FFFF80ED
:1016800001FFFF000CFFFE001E0000003F000000F5
:101690003F0000003F0000003F0000003F0000004E
:1016A0003F0000003F0000003F0000003F0000003E
:1016B0003F0000003F0000003F0000003F0000002E
:1016C0003E00000039FFFE0023FFFF800FFFFFE018
:1016D00027FFFFC039FFFF183E0000783F0001F8E8
:1016E0003F0001F83F0001F83F0001F83F0001F81A
:1016F0003F0001F83F0001F83F0001F83F0001F80A
:101700003F0001F83F0001F83F0001F83F0001F8F9
:101710003F0001F81E0000F00CFFFE6001FFFF001B
:1017200003FFFF8001FFFF0000FFFE00000000003C
:1017300000000000000000000000000000FFFE00AC
:1017400001FFFF0003FFFF8001FFFF6000FFFEF0CD
:10175000000001F8000001F8000001F8000001F8A5
:10176000000001F8000001F8000001F8000001F895
:10177000000001F8000001F8000001F8000001F885
:10178000000001F8000001F80000007800000018D7
:101790000000000800000000000000000000001829
:1017A00000000078000001F8000001F8000001F8D6
:1017B000000001F8000001F8000001F8000001F845
:1017C000000001F8000001F8000001F8000001F835
:1017D000000001F8000001F8000001F8000000F02E
:1017E0000000006000000000000000000000000099
:1017F00000000000000000000000000000000000E9
:101800000000000000FFFE0001FFFF0003FFFF805B
:1018100001FFFF600CFFFEF01E0001F83F0001F821
:101820003F0001F83F0001F83F0001F83F0001F8D8
:101830003F0001F83F0001F83F0001F83F0001F8C8
:101840003F0001F83F0001F83F0001F83F0001F8B8
:101850003E00007839FFFE1823FFFF880FFFFFE0EE
:1018600027FFFFC039FFFF183E0000783F0001F856
:101870003F0001F83F0001F83F0001F83F0001F888
:101880003F0001F83F0001F83F0001F83F0001F878
:101890003F0001F83F0001F83F0001F83F0001F868
:1018A0003F0001F81E0000F00CFFFE6001FFFF008A
:1018B00003FFFF8001FFFF0000FFFE0000000000AB
:1018C00000000000000000000000000000FFFE001B
:1018D00001FFFF0003FFFF8001FFFF600CFFFEF030
:1018E0001E0001F83F0001F83F0001F83F0001F839
:1018F0003F0001F83F0001F83F0001F83F0001F808
:101900003F0001F83F0001F83F0001F83F0001F8F7
:101910003F0001F83F0001F83E00007839FFFE1853
:1019200023FFFF880FFFFFE007FFFFC001FFFF1845
:1019300000000078000001F8000001F8000001F844
:10194000000001F8000001F8000001F8000001F8B3
:10195000000001F8000001F8000001F8000001F8A3
:10196000000001F8000001F8000001F8000000F09C
:1019700000FFFE6001FFFF0003FFFF8001FFFF008B
:1019800000FFFE0000000000000000000000210039
:10199000240027002A002D00300033000101000040
:1019A000040107010A0100002200250028002B0085
:1019B0002E003100340002010000050108010B0176
:1019C000000020002300260029002C002F003200F8
:1019D00000010000030106010901050505050705D1
:1019E00008080808020202020A0A0808040404049B
:1019F00001010101010101010303030303030303C7
:101A0000040707070C0C0C0C0C0C0C0C0202020255
:101A100006060606060606060B0B0B0B0B0B0B0B3E
:101A200001021020200808102040102040800201F0
:101A300002010804020101020408102040808040D5
:101A400020100804020180040201804020100804D4
:101A50000201080402010102040810204080010272
:101A60000408102040800000090A02080B0C0D0732
:101A70000603040100000000000000000000000058
:101A80000000000000000000000000000000000056
:101A9000000011100F000000000000000000000016
:101AA000000000000000000000000000860D11246E
:101AB0001FBECFEFD1E2DEBFCDBF00E00CBF12E012
:101AC000A0E0B2E0EAE8F2E600E00BBF02C0079057
:101AD0000D92A639B107D9F712E0A6E9B2E001C02C
:101AE0001D92A03DB107E1F71AE1CEEADAE104C0A8
:101AF0002297FE010E943F31CC3AD107C9F70E94DC
:101B00002B310C943A310C9400000895CF92DF925F
:101B1000EF92FF920F931F9386E992E062E046E214
:101B200050E027E230E008E210E079E2E72EF12C05
:101B3000CC24DD240E94B02D1F910F91FF90EF90D7
:101B4000DF90CF9008950F931F9306E912E0C8012C
:101B500061E00E943912C8016CE571E00E94201218
:101B60001F910F910895DC01542F283009F47AC198
:101B7000293020F4213009F051C207C0203109F486
:101B800089C1213109F04AC29CC11F968C911F97CF
:101B9000843029F55896ED91FC91599792969C9135
:101BA0009297613021F48081892B808304C08081E9
:101BB0009095982390835A96ED91FC915B97908134
:101BC00093968C9193978095892380835A96ED9173
:101BD000FC915B97808193969C9193970AC0509655
:101BE000ED91FC9151975E969C915E97613021F446
:101BF0008081892B808304C0808190959823908375
:101C00005896ED91FC91599792969C91929757FF17
:101C100004C08081892B808304C0808190959823A3
:101C200090835A96ED91FC915B97908193968C915D
:101C300093978095892380835A96ED91FC915B97C9
:101C4000808193969C919397892B8083252F3327AE
:101C500027FD30955896ED91FC91599792969C915D
:101C6000929726FF04C08081892B808304C08081E5
:101C70009095982390835A96ED91FC915B97908173
:101C800093968C9193978095892380835A96ED91B2
:101C9000FC915B97808193969C919397892B80838D
:101CA0005896ED91FC91599792969C91929725FFA9
:101CB00004C08081892B808304C080819095982303
:101CC00090835A96ED91FC915B97908193968C91BD
:101CD00093978095892380835A96ED91FC915B9729
:101CE000808193969C919397892B80835896ED9150
:101CF000FC91599792969C91929724FF04C0808101
:101D0000892B808304C080819095982390835A9674
:101D1000ED91FC915B97908193968C919397809530
:101D2000892380835A96ED91FC915B9780819396ED
:101D30009C919397892B80835896ED91FC915997AC
:101D400092969C91929723FF04C08081892B808377
:101D500004C080819095982390835A96ED91FC91D0
:101D60005B97908193968C9193978095892380833C
:101D70005A96ED91FC915B97808193969C919397F5
:101D8000892B80835896ED91FC91599792969C915E
:101D9000929722FF04C08081892B808304C08081B8
:101DA0009095982390835A96ED91FC915B97908142
:101DB00093968C9193978095892380835A96ED9181
:101DC000FC915B97808193969C919397892B80835C
:101DD0005896ED91FC91599792969C91929721FF7C
:101DE00004C08081892B808304C0808190959823D2
:101DF00090835A96ED91FC915B97908193968C918C
:101E000093978095892380835A96ED91FC915B97F7
:101E1000808193969C919397892B80835896ED911E
:101E2000FC91599792969C91929720FF04C08081D3
:101E3000892B808304C080819095982390835A9643
:101E4000ED91FC915B97908193968C9193978095FF
:101E5000892380835A96ED91FC915B9780819396BC
:101E60009C912CC062B95296ED91FC915397908150
:101E70005F968C915F978095892380835296ED9130
:101E8000FC91539780815F969C915F97892B80830B
:101E900042B902C062B948B95296ED91FC9153978C
:101EA00090815F968C915F9780958923808352966D
:101EB000ED91FC91539780815F969C91892B808353
:101EC0000895A59844B3262F332727FD3095C901DF
:101ED00080719070880F991F482B44BB809102013C
:101EE000877E8093020140910201C901807C90703D
:101EF000F3E095958795FA95E1F7482B4093020119
:101F00008EB1847C8EB99EB1862F8C70880F880F1D
:101F10006370860F2072307035952795359527951B
:101F2000820F892B8EB95C96ED91FC915D97908123
:101F300094968C9194978095892380835C96ED91FB
:101F4000FC915D97808194969C919497892B8083D6
:101F50005C96ED91FC915D97908194968C9194970D
:101F60008095892380835496ED91FC9155979081BB
:101F700090968C919097809589238083A59844B3FF
:101F8000252F332727FD3095C90180719070880F68
:101F9000991F482B44BB80910201877E80930201E8
:101FA00040910201C901807C907063E0959587950E
:101FB0006A95E1F7482B409302018EB1847C8EB97B
:101FC0009EB1852F8C70880F880F5370850F2072FB
:101FD00030703595279535952795820F892B8EB9C9
:101FE0005296ED91FC91539790815F968C915F97FB
:101FF0008095892380835296ED91FC91539780813F
:102000005F969C915F97892B80835496ED91FC910C
:102010005597808190969C91892B80830895DC014F
:10202000462F1E968C911E97813081F05096ED912F
:10203000FC91519790815E968C915E978095892353
:102040008083CD0160E01E962C9103C0CD0160E03D
:1020500021E00E94B30D08951F93CF93DF93EC010D
:10206000262F142F8E85813041F0E889F9898081EF
:102070009E8D892B8083CE0108C0CE0161E0422F66
:1020800021E00E94B30DCE0161E0412F2E850E9418
:10209000B30DDF91CF911F910895DC01462F1E965D
:1020A0008C911E97813079F05096ED91FC9151976B
:1020B00080815E969C915E97892B8083CD0160E044
:1020C0001E962C9103C0CD0161E021E00E94B30D6A
:1020D0000895EF92FF920F931F938C017A010E9453
:1020E0000F106F2D772767FD7A95C8014E2D0E943E
:1020F0002C101F910F91FF90EF900895AF92BF9217
:10210000CF92DF92EF92FF920F931F93CF93DF93C3
:10211000EC017B015A0169018C81813059F42985D8
:102120003A85B9016E197F092C193D097A015901C7
:1021300068018B018D85E82FF0E0EE31F10508F0A4
:1021400074C1EE58FF4FEE0FFF1F0590F491E02D84
:102150001994CE0162E04F2D50E00E946910CE012B
:1021600063E0A7010E946910CE0164E04D2D50E0AC
:102170000E946910CE0165E0A6010E946910CE019F
:1021800066E04B2D50E00E946910CE0167E0A5018A
:102190000E946910CE0168E0412F50E070C0CE016E
:1021A0006AE20E940F10CE0160E04F2D0E942C10B9
:1021B000CE0160E04E2D0E942C10CE0160E04D2D2E
:1021C0000E942C10CE0160E04C2D0E942C10CE01FC
:1021D0006BE20E940F10CE0160E04B2D0E942C108C
:1021E000CE0160E04A2D0E942C10CE0160E0412F0C
:1021F0000E942C10CE0160E0402F0E942C10FAC0EB
:102200005C2D44274E0D5F1DCE0164E40E946910D1
:10221000CE0165E4A5010E946910CE0166E4A80123
:102220000E946910CE016EE4A7010E946910CE01E0
:102230006FE4B2C0CE0162E040E050E00E9469105D
:10224000CE0163E0A7010E946910CE0164E040E086
:1022500050E00E946910CE0165E0A6010E9469105D
:10226000CE0166E040E050E00E946910CE0167E0D8
:10227000A5010E946910CE0168E040E050E00E9494
:102280006910CE0169E06BC0CE016AE20E940F10B6
:10229000CE016E2D0E944D10CE016C2D0E944D106E
:1022A000CE016BE20E940F10CE016A2D9DC0CE01BF
:1022B0006AE20E940F10CE016B2D0E944D10CE01DC
:1022C0006A2D0E944D10CE01612F0E944D10CE014B
:1022D000602F0E944D10CE016BE20E940F10CE01C4
:1022E0006F2D0E944D10CE016E2D0E944D10CE011B
:1022F0006D2D0E944D10CE016C2D7AC05C2D4427AF
:102300004E295F29CE0166E40E946910CE0167E480
:10231000A8010E946910CE0168E4A5010E9469101D
:10232000CE0160E2A70134C0CE0160E2A7010E94A5
:102330006910CE0161E2A5010E946910CE0160E53D
:10234000A7010E946910CE0162E5A5010E946910F3
:10235000CE0161E5A6010E946910CE0163E5A801E6
:102360001CC0CE0166E3A6010E946910CE0167E39E
:10237000A7010E946910CE0168E3A8010E946910BC
:10238000CE0169E3A5010E946910CE0160E2A701B8
:102390000E946910CE0161E2A5010E946910CE0180
:1023A00062E241C0CE016AE20E940F10CE016F2DA1
:1023B0000E944D10CE016E2D0E944D10CE016D2D4C
:1023C0000E944D10CE016C2D0E944D10CE016BE28B
:1023D0000E940F10CE016B2D0E944D10CE016A2D70
:1023E0000E944D10CE01612F0E944D10CE01602F32
:1023F0000E944D10CE016CE216C0CE0162E0A50134
:102400000E946910CE0163E0A7010E946910CE010D
:1024100066E0A8010E946910CE0167E0A6010E9453
:102420006910CE016FE00E940F10DF91CF911F91D4
:102430000F91FF90EF90DF90CF90BF90AF900895F5
:10244000DC01FB019B967C936E939A9784919C96FA
:102450008C939C97319684919D968C939D97319601
:1024600084919E968C939E973196E4919F96EC93DF
:1024700008950F931F93CF93DF93EC01162F8DA137
:1024800061E00E9445308EA161E00E9445308FA13D
:1024900061E00E94453088A561E00E9445308E854C
:1024A000813129F0813039F48F85853021F489A577
:1024B00061E00E9445308E85813079F0813131F0C4
:1024C0009FEF91B9803149F497B907C088E18093B3
:1024D000010180E283BB8BE38DB91C83EE89FF8908
:1024E000808199A1892B808365E070E080E090E095
:1024F0000E948A2FEE89FF89908189A18095892386
:1025000080836FE070E080E090E00E948A2FEE8987
:10251000FF89808199A1892B80836FE070E080E042
:1025200090E00E948A2FEC89FD89908188A1809596
:10253000892380838D85E82FF0E0EE31F10510F0DE
:102540000C949D2DE057FF4FEE0FFF1F0590F49167
:10255000E02D1994CE0166E444EA50E00E9469102F
:10256000CE0167E443E550E00E946910CE0168E4C3
:1025700040E050E00E946910CE0169E444E450E07C
:102580000E946910CE016AE444E050E00E946910A4
:10259000CE016BE447E650E00E946910CE016CE486
:1025A00043E350E00E946910CE016DE447E750E03C
:1025B0000E946910CE016EE442E150E00E94691071
:1025C000CE016FE44CE450E00E946910CE0160E55A
:1025D00046E450E00E946910CE0161E544E450E019
:1025E0000E946910CE0162E040E050E00E94691054
:1025F000CE0163E040E050E00E946910CE0164E04B
:1026000040E050E00E946910CE0165E04FEE50E0DE
:102610000E946910CE0166E040E050E00E9469101F
:10262000CE0167E040E050E00E946910CE0168E012
:1026300041E050E00E946910CE0169E04FE350E0B4
:102640000E946910CE0161E046E050E00E946910EE
:10265000CE0166E148EC50E00E946910CE0163E2D1
:1026600045E950E00E946910CE0164E245E950E07E
:102670000E946910CE0165E24FEF50E00E946910A0
:10268000CE0167E242E050E00E946910CE0168E2AC
:1026900042E050E00E946910CE0169E242E050E061
:1026A0000E946910CE016AE242E050E00E94691087
:1026B000CE016CE242E050E00E946910CE016DE272
:1026C00042E050E00E946910CE016AE341E050E030
:1026D0000E946910CE016BE340E050E00E94691057
:1026E000CE016CE340EF50E00E946910CE016DE333
:1026F00040E050E00E94691061E070E080E090E00E
:102700000E948A2FCE0165E348E350E00E946910E1
:10271000CE0166E348E750E00E946910CE016EE307
:1027200048E350E00E946910CE0160E44FE050E0C1
:102730000E946910CE0161E440EF50E00E946910F0
:10274000CE0169E149E450E00E946910CE0163E9DD
:102750004FE050E00E94691061E070E080E090E09E
:102760000E948A2FCE0160E240E450E00E9469108E
:10277000CE016DE147E050E00E946910CE016EE1AC
:1027800040E050E00E946910CE016FE144E050E06B
:102790000E946910CE0164E44DE450E00E9469108B
:1027A000CE0165E44EE050E00E94691061E070E007
:1027B00080E090E00E948A2FCE016CE144E050E07E
:1027C0000E94691062E070E080E090E00E948A2F31
:1027D000CE016BE148E150E00E94691061E070E0D9
:1027E00080E090E00E948A2FCE016BE140E150E052
:1027F0000E94691061E070E080E090E00E948A2F02
:10280000CE0163E440E850E00E94691062E070E0AD
:1028100080E090E00E948A2FCE0160E94FE750E00F
:102820000E946910CE0166E244E050E00E94691007
:1028300061E070E080E090E00E948A2FCE0166E2C5
:1028400044E250E00E946910CE0166E24CE250E0A2
:102850000E94691061E070E080E090E00E948A2FA1
:10286000CE0166E24CE350E00E946910CE0167E5BC
:1028700042E050E00E946910CE0165E941E050E07D
:102880000E946910CE0167E50C942B25CE0169EEFC
:102890000E940F10CE0160E040E20E942C10CE0199
:1028A00061E10E940F1064E670E080E090E00E9419
:1028B0008A2FCE0161ED0E940F10CE0160E040E052
:1028C0000E942C10CE0160E041E70E942C10CE0146
:1028D00060E049E10E942C10CE0160ED0E940F10D3
:1028E000CE0160E047E00E942C10CE0160E041E0A4
:1028F0000E942C10CE0160E048E00E942C10CE0116
:1029000066E30E940F10CE0160E048E40E942C10A4
:10291000CE016AE30E940F10CE0160E045E00E9404
:102920002C10CE0161EC0E940F10CE0160E040E15E
:102930000E942C10CE0160E040E10E942C10CE01DC
:1029400060E042E00E942C10CE0160E042E00E9474
:102950002C10CE0160EC0E940F10CE0160E040E030
:102960000E942C10CE0160E045E30E942C10CE01A5
:1029700060E040E00E942C10CE0160E040E00E9448
:102980002C10CE0160E041E00E942C10CE0160E0EE
:1029900042E00E942C10CE0165EC0E940F10CE0187
:1029A00060E044E00E942C10CE0162ED0E940F1006
:1029B000CE0160E041E00E942C10CE0160E044E4D2
:1029C0000E942C10CE0168EC0E940F10CE0160E036
:1029D00044E00E942C10CE0160E047E60E942C10DB
:1029E000CE0160E045E30E942C10CE0160E044E09F
:1029F0000E942C10CE0160E048E00E942C10CE0115
:102A000060E046E00E942C10CE0160E044E20E94AB
:102A10002C10CE0160E041E00E942C10CE0160E05D
:102A200047E30E942C10CE0160E040E40E942C108D
:102A3000CE0160E043E00E942C10CE0160E040E156
:102A40000E942C10CE0160E048E00E942C10CE01C4
:102A500060E040E80E942C10CE0160E040E00E945F
:102A60002C10CE016AE20E940F10CE0160E040E01F
:102A70000E942C10CE0160E040E00E942C10CE019C
:102A800060E040E00E942C10CE0160E04FEE0E941A
:102A90002C10CE016BE20E940F10CE0160E040E0EE
:102AA0000E942C10CE0160E040E00E942C10CE016C
:102AB00060E041E00E942C10CE0160E04FE80E94EF
:102AC0002C100C94812DCE0160E041E050E00E947A
:102AD0006910CE0163E044EA58EA0E946910CE0111
:102AE0006CE040E050E00E946910CE016DE04CE0E7
:102AF00058E00E946910CE016EE040E05BE20E9467
:102B00006910CE016EE147EB50E00E946910CE01E2
:102B100061E04FE35BE20E946910CE0162E040E0B9
:102B200056E00E946910CE0160E140E050E00E9452
:102B30006910CE0161E140E750E60E946910CE01C4
:102B400065E040E050E00E946910CE0166E040E0A0
:102B500050E00E946910CE0166E14CE15FEE0E94F8
:102B60006910CE0167E143E050E00E946910CE0198
:102B700067E043E352E00E946910CE016BE040E061
:102B800050E00E946910CE016FE040E050E00E94EA
:102B90006910CE0161E440E050E00E946910CE016E
:102BA00062E440E050E00E946910CE0168E440E039
:102BB00050E00E946910CE0169E44FE351E00E94A9
:102BC0006910CE016AE440E050E00E946910CE0135
:102BD0006BE440E050E00E946910CE0164E440E004
:102BE0005FEE0E946910CE0165E440E050E00E9473
:102BF0006910CE0166E44FE351E00E946910CE01F6
:102C000060E347E057E00E946910CE0161E344E0D1
:102C100052E00E946910CE0162E344E052E00E945B
:102C20006910CE0163E342E055E00E946910CE01D5
:102C300064E347E055E00E946910CE0165E344E09B
:102C400052E00E946910CE0166E344E052E00E9427
:102C50006910CE0167E342E055E00E946910CE01A1
:102C60006AE342E053E00E946910CE016BE342E068
:102C700053E00E946910CE0163E240E050E00E9400
:102C80006910CE0164E240E050E00E946910CE017C
:102C900065E240E050E80E946910CE016FE440E038
:102CA00050E00E946910CE016EE40C942B25CE01F9
:102CB00065EE40EF58E70E946910CE0161E040E008
:102CC00051E00E946910CE0162E040E057E00E94AE
:102CD0006910CE0163E040E350E10E946910CE012B
:102CE00064E040E050E00E946910CE0168E047E0F7
:102CF00052E00E946910CE0169E040E050E00E947D
:102D00006910CE016AE040E050E00E946910CE01F7
:102D10006CE040E050E00E946910CE016DE040E0C0
:102D200050E00E946910CE016FE040E050E00E9448
:102D30006910CE0160E140E050E00E946910CE01D0
:102D400061E147E050E00E946910CE0162E140E09D
:102D500050E00E946910CE0163E140E050E00E9423
:102D60006910CE0167E041E050E00E94691068EC14
:102D700070E080E090E00E948A2FCE0160E140E99F
:102D800050E10E946910CE0161E147E252E00E94E9
:102D9000691062E370E080E090E00E948A2FCE012B
:102DA00062E14FE150E00E94691062E370E080E070
:102DB00090E00E948A2FCE0163E140E055E10E943D
:102DC0006910CE0169E247E250E00E946910CE012D
:102DD0006BE24DE050E00E94691062E370E080E039
:102DE00090E00E948A2FCE0160E240E050E00E9415
:102DF0006910CE0161E240E050E00E946910CE010E
:102E000060E340E050E00E946910CE0161E347E0DA
:102E100057E00E946910CE0162E347E053E00E9450
:102E20006910CE0165E340E052E00E946910CE01D6
:102E300066E348E050E00E946910CE0167E344E099
:102E400050E00E946910CE0168E340E050E00E942B
:102E50006910CE0169E347E057E00E946910CE0196
:102E60006CE342E050E00E946910CE016DE344E063
:102E70005DE10E946910CE0160E540E050E00E94F3
:102E80006910CE0161E54FEE50E00E946910CE015D
:102E900062E540E050E00E946910CE0163E54FE337
:102EA00051E00E946910CE0160E640E057EA0E94BE
:102EB0006910CE0161E641E050E00E946910CE0148
:102EC0006AE640E050E00E946910CE0160E840E010
:102ED00050E00E946910CE0161E840E050E00E949D
:102EE0006910CE0162E840E050E00E946910CE0116
:102EF00063E840E050E00E946910CE0164E840E0E1
:102F000050E00E946910CE0165E840E050E00E9468
:102F10006910CE0160E940E150E00E946910CE01E5
:102F200062E940E056E0D1C1CE0165EE40EF58E7DE
:102F30000E946910CE0161E040E051E00E946910FA
:102F4000CE0162E040E052E00E946910CE0163E0F1
:102F500040E350E10E946910CE0164E040E050E09F
:102F60000E946910CE0168E047E052E00E946910BB
:102F7000CE0169E040E050E00E946910CE016AE0B5
:102F800040E050E00E946910CE016CE040E050E06B
:102F90000E946910CE016DE040E050E00E9469108F
:102FA000CE016FE040E050E00E946910CE0160E188
:102FB00040E050E00E946910CE0161E147E050E03E
:102FC0000E946910CE0162E140E050E00E94691069
:102FD000CE0163E140E050E00E946910CE0167E05D
:102FE00041E050E00E94691068EC70E080E090E001
:102FF0000E948A2FCE0160E140E956E10E946910EB
:10300000CE0161E147E252E00E94691062E370E0A4
:1030100080E090E00E948A2FCE0162E14DE050E016
:103020000E94691062E370E080E090E00E948A2FC5
:10303000CE0163E140E052E10E946910CE0169E2F5
:103040004AE050E00E946910CE016BE24DE050E092
:1030500094C0CE0165EE40EF58E70E946910CE01A2
:1030600061E040E051E00E946910CE0162E040E082
:1030700057E00E946910CE0163E040E350E10E94F6
:103080006910CE0164E040E050E00E946910CE017A
:1030900068E047E052E00E946910CE0169E040E03C
:1030A00050E00E946910CE016AE040E050E00E94CA
:1030B0006910CE016CE040E050E00E946910CE0142
:1030C0006DE040E050E00E946910CE016FE040E00A
:1030D00050E00E946910CE0160E140E050E00E94A3
:1030E0006910CE0161E147E050E00E946910CE0115
:1030F00062E140E050E00E946910CE0163E140E0EF
:1031000050E00E946910CE0167E041E050E00E946B
:10311000691068EC70E080E090E00E948A2FCE0198
:1031200060E140E955E10E946910CE0161E147E2AA
:1031300052E00E94691062E370E080E090E00E943B
:103140008A2FCE0162E14CE950E00E94691062E3EF
:1031500070E080E090E00E948A2FCE0163E140E0C1
:1031600059E10E946910CE0169E243E250E00E94F9
:103170006910CE016BE24EE050E00E94691062E3FC
:1031800070E080E090E00E948A2FCE0160E240E093
:1031900050E00E946910CE0161E240E050E00E94E0
:1031A0006910CE0160E340E050E00E946910CE015A
:1031B00061E344E054E00E946910CE0162E343E021
:1031C00050E00E946910CE0165E345E054E00E94A2
:1031D0006910CE0166E348E058E00E946910CE0114
:1031E00067E347E054E00E946910CE0168E343E0E2
:1031F00053E00E946910CE0169E347E057E00E9466
:103200006910CE016CE344E055E00E946910CE01E4
:103210006DE348E058E00E946910CE0160E540E0AF
:1032200050E00E946910CE0161E54FEE50E00E942F
:103230006910CE0162E540E050E00E946910CE01C5
:1032400063E54FE351E00E946910CE0160E640E083
:1032500057EA0E946910CE0161E641E050E00E9409
:103260006910CE016AE640E050E00E946910CE018C
:1032700060E840E050E00E946910CE0161E840E063
:1032800050E00E946910CE0162E840E050E00E94E8
:103290006910CE0163E840E050E00E946910CE0161
:1032A00064E840E050E00E946910CE0165E840E02B
:1032B00050E00E946910CE0160E940E150E00E94B8
:1032C0006910CE0162E940E050E00E946910CE0131
:1032D00067E043E351E00E9469100C949D2DCE01FC
:1032E00066E244E850E00E94691068E270E080E025
:1032F00090E00E948A2FCE0166E248EB50E00E94E7
:10330000691068E270E080E090E00E948A2FCE01B0
:1033100066E24CEB50E00E94691064E170E080E0EE
:1033200090E00E948A2FCE0160E640E050E00E94CB
:103330006910CE0161E646E050E00E946910CE01BE
:1033400062E640E050E00E946910CE0163E648EC7E
:1033500050E00E94691064E170E080E090E00E941B
:103360008A2FCE0163E740E750E00E946910CE014A
:1033700060E440E050E00E946910CE0161E440E466
:1033800050E00E946910CE0162E445E450E00E94E2
:103390006910CE0163E441E050E00E946910CE0163
:1033A00064E440E650E00E946910CE0165E445E027
:1033B00050E00E946910CE0166E44CE050E00E94AB
:1033C0006910CE0167E441ED50E00E946910CE0122
:1033D00068E445E050E00E946910CE0160E545E7F1
:1033E00050E00E946910CE0161E541E050E00E948A
:1033F0006910CE0162E547E650E00E946910CE01F7
:1034000063E544E150E00E946910CE0164E542EFBB
:1034100050E00E946910CE0165E547E050E00E944F
:103420006910CE0166E543E050E00E946910CE01CC
:1034300067E549E450E00E94691064E170E080E0D3
:1034400090E00E948A2FCE016FE143E050E00E949D
:103450006910CE0160E240E050E00E946910CE01A8
:1034600064E244E250E00E946910CE0165E244E368
:1034700050E00E946910CE0163E24FE250E00E94EA
:10348000691064E170E080E090E00E948A2FCE0134
:1034900068E144E450E00E946910CE0161E241E03D
:1034A00050E00E946910CE0161E040E050E00E94CF
:1034B0006910CE016CE143E050E00E946910CE013A
:1034C00069E146E050E00E94691064E170E080E04C
:1034D00090E00E948A2FCE0166E244E850E00E940C
:1034E000691068E270E080E090E00E948A2FCE01CF
:1034F00066E248EB50E00E94691068E270E080E00C
:1035000090E00E948A2FCE0166E24CEB50E00E94D0
:10351000691064E170E080E090E00E948A2FCE01A3
:1035200062E040E050E00E946910CE0163E040E0BC
:1035300050E00E946910CE0164E040E050E00E943B
:103540006910CE0165E04FEA50E00E946910CE019B
:1035500066E040E050E00E946910CE0167E040E084
:1035600050E00E946910CE0168E040E050E00E9407
:103570006910CE0169E04BED50E00E94691064E1F2
:1035800070E080E090E00E948A2FCE0166E148E082
:1035900050E00E946910CE0167E145E050E00E94D2
:1035A0006910CE0161E20E940F100C941E28CE011A
:1035B00061EC0E940F10CE016FEF0E944D10CE0102
:1035C00063E80E944D10CE0160E40E944D10CE01D0
:1035D00061E10E940F1064E670E080E090E00E94DC
:1035E0008A2FCE016AEC0E940F10CE0160E70E9484
:1035F0004D10CE0160E00E944D10CE0169ED0E9499
:103600004D10CE0161E00E944D10CE0161E10E949B
:103610004D10CE0169EC0E940F10CE0160E90E94AE
:103620004D10CE0169E40E944D10CE0160E10E9470
:103630004D10CE0168E20E944D10CE0168E20E945A
:103640004D10CE0160E10E944D10CE0160E00E945D
:103650004D10CE0166E00E944D1064E170E080E004
:1036600090E00E948A2FCE0162EC0E940F10CE01E2
:1036700060E60E944D10CE0161E70E944D10CE0120
:1036800061E00E944D10CE016EE00E944D10CE010F
:1036900065E00E944D10CE0162E00E944D10CE0107
:1036A00069E00E944D10CE0161E30E944D10CE01F1
:1036B0006AE00E944D10CE0163EC0E940F10CE0113
:1036C00067E60E944D10CE0160E30E944D10CE01CE
:1036D00061E60E944D10CE0167E10E944D10CE01BF
:1036E00068E40E944D10CE0167E00E944D10CE01AB
:1036F00065E00E944D10CE0163E30E944D106AE028
:1037000070E080E090E00E948A2FCE0165EB0E947D
:103710000F10CE0165E30E944D10CE0160E20E94C1
:103720004D10CE0165E40E944D10CE0164EB0E9465
:103730000F10CE0163E30E944D10CE0165E20E949E
:103740004D10CE016CE40E944D106AE070E080E004
:1037500090E00E948A2FCE016AE30E940F10CE01F2
:1037600065E00E944D10CE0169E20E940F106AE0F0
:1037700070E080E090E00E948A2FCE016AE20E9411
:103780000F10CE0160E00E944D10CE0160E00E945B
:103790004D10CE0160E00E944D10CE016FEA0E94F4
:1037A0004D10CE016BE20E940F10CE0160E00E942E
:1037B0004D10CE0160E00E944D10CE0160E00E94ED
:1037C0004D10CE016BED94C6CE0161E10E940F1049
:1037D0006CE070E080E090E00E948A2FCE0161EB07
:1037E0000E940F10CE0161E00E944D10CE016CE2EC
:1037F0000E944D10CE016DE20E944D10CE0162EB91
:103800000E940F10CE0161E00E944D10CE016CE2CB
:103810000E944D10CE016DE20E944D10CE0163EB6F
:103820000E940F10CE0161E00E944D10CE016CE2AB
:103830000E944D10CE016DE20E944D10CE0161E05C
:103840000E944D10CE016CE20E944D10CE016DE23F
:103850000E944D10CE0164EB0E940F10CE0167E074
:103860000E944D10CE0160EC0E940F10CE0162EA62
:103870000E944D10CE0162E00E944D10CE0164E81E
:103880000E944D10CE0161EC0E940F10CE0165EC3C
:103890000E944D10CE0162EC0E940F10CE016AE032
:1038A0000E944D10CE0160E00E944D10CE0163ECED
:1038B0000E940F10CE016AE80E944D10CE016AE20C
:1038C0000E944D10CE0164EC0E940F10CE016AE8F8
:1038D0000E944D10CE016EEE0E944D10CE0165EC9F
:1038E0000E940F10CE016EE00E944D10CE0166E3E3
:1038F0000E940F10CE0168EC0E944D10CE0160EEC8
:103900000E940F10CE016FE00E944D10CE016AE1BF
:103910000E944D10CE016FE00E944D10CE0168E173
:103920000E944D10CE016FE20E944D10CE0168E260
:103930000E944D10CE0160E20E944D10CE0162E265
:103940000E944D10CE016FE10E944D10CE016BE13F
:103950000E944D10CE0163E20E944D10CE0167E33C
:103960000E944D10CE0160E00E944D10CE0167E034
:103970000E944D10CE0162E00E944D10CE0160E128
:103980000E944D10CE0161EE0E940F10CE016FE03B
:103990000E944D10CE016BE10E944D10CE016FE0F0
:1039A0000E944D10CE0167E10E944D10CE0163E3ED
:1039B0000E944D10CE016CE20E944D10CE0169E2D2
:1039C0000E944D10CE016EE20E944D10CE0160E3C8
:1039D0000E944D10CE0160E30E944D10CE0169E3BC
:1039E0000E944D10CE016FE30E944D10CE0160E0A9
:1039F0000E944D10CE0167E00E944D10CE0163E0A1
:103A00000E944D10CE0160E10E944D10CE016AE28D
:103A10000E940F10CE0160E00E944D10CE0160E0C8
:103A20000E944D10CE0160E00E944D10CE016FE764
:103A30000E944D10CE016BE20E940F10CE0160E09B
:103A40000E944D10CE0160E00E944D10CE0160E05A
:103A50000E944D10CE016FE90E944D10CE0160EF23
:103A60000E940F10CE0161E00E944D10CE0166EF62
:103A70000E940F10CE0160E00C944129CE0161E05C
:103A80000E940F10CE0165E20E940F10CE0160E48B
:103A90000E944D10CE0161E10E940F106AE070E0BB
:103AA00080E090E00E948A2FCE0160E20E940F1019
:103AB000CE0168E30E940F10CE0169E20E940F1050
:103AC000CE0163E10E940F10CE0166E30E940F1049
:103AD000CE0160E60E944D10CE016AE30E940F10F5
:103AE000CE0165E00E944D10CE016AE20E940F10E7
:103AF000CE0160E00E944D10CE016FE70E944D1094
:103B0000CE0164EB0E940F10CE0163E00E944D10C5
:103B1000CE0168E00E944D10CE016BE00E944D1076
:103B2000CE016EE00E944D10CE016AEB0E940F1094
:103B3000CE0167E00E944D10CE016DE00E944D1055
:103B4000CE016BE20E940F10CE0160E00E944D108A
:103B5000CE016FE7CDC4CE0161E10E940F10CE010E
:103B600063E10E940F10CE0169E20E940F10CE01A6
:103B700060EB0E940F10CE0165E00E944D10CE0157
:103B800060E00E944D10CE0160EF0E944D10CE010A
:103B90006AE00E944D10CE0161E40E944D10CE01FA
:103BA00062E00E944D10CE016AE00E944D10CE01ED
:103BB00060E30E944D10CE0161E30E944D10CE01E2
:103BC00066E30E944D10CE0167E30E944D10CE01C6
:103BD00060E40E944D10CE0162E00E944D10CE01C3
:103BE0006FE30E944D10CE0160E40E944D10CE01A3
:103BF00062E00E944D10CE0161E80E944D10CE019E
:103C000064E00E944D10CE0165E00E944D10CE018F
:103C100064E60E944D10CE016CEF0E940F10CE01A1
:103C200068E80E944D10CE0160E00E944D10CE0168
:103C300060E10E944D10CE0161E00E944D10CE0166
:103C400061E00E944D10CE0160E10E944D10CE0156
:103C500062E40E944D10CE0162E40E944D10CE013C
:103C600062E20E944D10CE0161E10E944D10CE0132
:103C700061E10E944D10CE0162E20E944D10CE0122
:103C800069E90E944D10CE016AEA0E944D10CE01F2
:103C90006AEA0E944D10CE016AEA0E944D10CE01E0
:103CA0006BEB0E944D10CE016BEB0E944D10CE01CC
:103CB0006AEA0E944D10CE0163E30E944D10CE01CE
:103CC00063E30E944D10CE0161E10E944D10CE01D0
:103CD00061E00E944D10CE0161E00E944D10CE01C6
:103CE00061E00E944D10CE0160E00E944D10CE01B7
:103CF00060E00E944D10CE0160EC0E944D10CE019C
:103D000060E00E944D10CE0160E00E944D10CE0197
:103D100060E00E944D10CE0160E00E944D10CE0187
:103D20006DEF0E940F10CE0168E80E944D10CE0189
:103D300060E00E944D10CE0160E10E944D10CE0166
:103D400061E00E944D10CE0161E00E944D10CE0155
:103D500060E10E944D10CE0162E40E944D10CE0140
:103D600062E40E944D10CE0162E20E944D10CE012D
:103D700061E10E944D10CE0161E10E944D10CE0123
:103D800062E20E944D10CE0169E90E944D10CE0101
:103D90006AEA0E944D10CE016AEA0E944D10CE01DF
:103DA0006AEA0E944D10CE016BEB0E944D10CE01CD
:103DB0006BEB0E944D10CE016AEA0E944D10CE01BD
:103DC00063E30E944D10CE0163E30E944D10CE01CB
:103DD00061E10E944D10CE0161E00E944D10CE01C4
:103DE00061E00E944D10CE0161E00E944D10CE01B5
:103DF00060E00E944D10CE0160E00E944D10CE01A7
:103E000060E00E944D10CE0160E00E944D10CE0196
:103E100060E00E944D10CE0160E00E944D10CE0186
:103E200063E00E944D10CE016EEB0E940F10CE0198
:103E300060E00E944D10CE0165E10E944D10CE0160
:103E400066E10E944D10CE0168E00E944D10CE0147
:103E500069E00E944D10CE0165E10E944D10CE0137
:103E600060E10E944D10CE0160E00E944D10CE0135
:103E700060E00E944D10CE0160E00E944D10CE0126
:103E800060EC0E940F10CE016EE00E944D10CE013A
:103E900061E00E944D10CE0160E00E944D10CE0105
:103EA00060E00E944D10CE0160E00E944D10CE01F6
:103EB00061EC0E940F10CE016FE20E944D10CE0106
:103EC00063E20E944D10CE0164EB0E944D10CE01C2
:103ED0006FEF0E944D10CE0164E20E944D10CE01A2
:103EE00063E00E944D10CE0160E20E944D10CE01B1
:103EF00062E00E944D10CE0162E00E944D10CE01A2
:103F000062E00E944D10CE0160E20E944D10CE0191
:103F100060E20E944D10CE0160E00E944D10CE0183
:103F200062EC0E940F10CE0163E00E944D10CE01A2
:103F300066E20E940F10CE0168E00E944D10CE0193
:103F400065E30E940F10CE0166E30E940F10CE01C0
:103F500064E60E944D10CE016AE30E940F10CE016C
:103F600065E00E944D10CE016AE20E940F10CE0162
:103F700061E04FE30E942C10CE016BE20E940F1013
:103F8000CE016FEE0E944D10CE016CE20E940F1028
:103F9000CE016DE20E940F1010E0CE01612F0E9451
:103FA0004D101E5F1034C9F710E0CE01612F0E9442
:103FB0004D101F5F1034C9F710E0CE01612F0E9431
:103FC0004D101E5F1034C9F70C949D2DCE0163E88F
:103FD0000E940F10CE0162E00E944D10CE0165E8F4
:103FE0000E940F10CE0163E00E944D10CE016BE8DD
:103FF0000E940F10CE0161E00E944D10CE016CE8CE
:104000000E940F10CE0163E90E944D10CE0161E9BC
:104010000E940F10CE0161E00E944D10CE0163E8B6
:104020000E940F10CE0160E00E944D10CE016EE3A1
:104030000E940F10CE0160EB0E944D10CE016FE385
:104040000E940F10CE0163E00E944D10CE0160E48B
:104050000E940F10CE0160E10E944D10CE0161E47C
:104060000E940F10CE0166E50E944D10CE0162E461
:104070000E940F10CE0163E10E944D10CE0163E457
:104080000E940F10CE0166E40E944D10CE0164E440
:104090000E940F10CE0163E20E944D10CE0165E434
:1040A0000E940F10CE0166E70E944D10CE0166E41B
:1040B0000E940F10CE0160E00E944D10CE0167E417
:1040C0000E940F10CE016EE50E944D10CE0168E4F3
:1040D0000E940F10CE016FE40E944D10CE0169E4E2
:1040E0000E940F10CE0160E40E944D10CE0167E1E6
:1040F0000E940F10CE0161E90E944D10CE016BE2CB
:104100000E940F10CE0169EF0E944D106AE070E02E
:1041100080E090E00E948A2FCE016BE10E940F1098
:10412000CE0164E10E944D10CE016AE10E940F10A1
:10413000CE0161E10E944D10CE016CE10E940F1092
:10414000CE0166E00E944D10CE016FE10E940F107B
:10415000CE0162E40E944D1064E170E080E090E0E6
:104160000E948A2FCE0169E10E940F10CE016AE001
:104170000E944D10CE0169E10E940F10CE016AE14C
:104180000E944D1068E270E080E090E00E948A2F6B
:10419000CE0169E10E940F10CE0162E10E944D1034
:1041A00068E270E080E090E00E948A2FCE016EE12C
:1041B0000E940F10CE0167E20E944D1064E670E08D
:1041C00080E090E00E948A2FCE0164E20E940F10EE
:1041D000CE0160E60E944D10CE016DE30E940F10EB
:1041E000CE0160E40E944D10CE0164E30E940F10E6
:1041F000CE0168E30E944D10CE0165E30E940F10CE
:10420000CE0168E30E944D10CE0164E20E940F10BF
:10421000CE0168E30E944D1068E270E080E090E01B
:104220000E948A2FCE0164E20E940F10CE016CE33F
:104230000E944D10CE0166E10E940F10CE016CE18C
:104240000E944D10CE0161E00E940F10CE0166E089
:104250000E944D10CE0165E50E940F10CE0160E076
:104260000E944D10CE0162E00E940F10CE0160E06E
:104270000E944D10CE0163E00E940F10CE0160E05D
:104280000E944D10CE0164E00E940F10CE0160E04C
:104290000E944D10CE0165E00E940F10CE016FEE1E
:1042A0000E944D10CE0166E00E940F10CE0160E02A
:1042B0000E944D10CE0167E00E940F10CE0160E019
:1042C0000E944D10CE0168E00E940F10CE0161E007
:1042D0000E944D10CE0169E00E940F10CE016FE8E0
:1042E0000E944D10ABC6CE0162EE0E940F10CE01AF
:1042F00063E20E944D10CE0162E00E944D10CE019B
:1043000064E50E944D10CE0160EE0E940F10CE01B8
:1043100061E00E944D106AE070E080E090E00E9451
:104320008A2FCE0160EE0E940F10CE0163E00E9442
:104330004D106AE070E080E090E00E948A2FCE018C
:1043400061E00E940F1064E670E080E090E00E945F
:104350008A2FCE0166EE0E940F10CE0161E00E940E
:104360004D10CE016FE10E944D10CE016FEF0E9403
:104370004D10CE0160EB0E940F10CE0160E20E9452
:104380004D10CE0160E00E944D10CE0161E00E9410
:104390004D10CE016FED0E944D10CE0161E00E94E4
:1043A0004D10CE016FE00E944D10CE0160E00E94E2
:1043B0004D10CE0164EB0E940F10CE0162E00E940E
:1043C0004D10CE0163E10E944D10CE0160E00E94CD
:1043D0004D10CE0168E00E944D10CE016BE20E94AC
:1043E0004D10CE0160E00E944D10CE0162E00E94AF
:1043F0004D10CE0160E00E944D10CE0166EB0E9490
:104400000F10CE0161E00E944D10CE0160E20E94CB
:104410004D10CE0160E00E944D10CE0164E00E947C
:104420004D10CE016CE00E944D10CE0160E00E9464
:104430004D10CE0162E00E944D10CE016AEB0E9449
:104440000F10CE016FE00E944D10CE0168EB0E946C
:104450000F10CE0167E00E944D10CE0161E00E9476
:104460004D10CE0166E30E940F10CE0162E20E9461
:104470004D10CE0160EF0E940F10CE0163E00E944C
:104480004D1061E070E080E090E00E948A2FCE0144
:1044900060E070E040E050E02FED31E00FE011E02F
:1044A0000E947E10CE0169E20E940F10CE016EEBD9
:1044B0000E940F10CE0166E00E944D10CE0160EF09
:1044C0000E944D10CE0161E00E944D10CE0160EFC0
:1044D0000E944D10CE0160E00E944D10CE0160E0C0
:1044E0000E944D10CE0160ED0E940F10CE016DE0D4
:1044F0000E944D100C94852DCE0162EE0E940F108B
:10450000CE016EE10E944D10CE0162E00E944D107E
:10451000CE0164E50E944D10CE0160EE0E940F10A6
:10452000CE0161E00E944D106AE070E080E090E012
:104530000E948A2FCE0160EE0E940F10CE0163E030
:104540000E944D106AE070E080E090E00E948A2FA7
:10455000CE0161E00E940F1064E670E080E090E020
:104560000E948A2FCE0166EE0E940F10CE0163E0FA
:104570000E944D10CE016FEF0E944D10CE016FEFE3
:104580000E944D10CE0160EB0E940F10CE0164E23C
:104590000E944D10CE0160E00E944D10CE0163E0FC
:1045A0000E944D10CE016FE10E944D10CE0161E0DE
:1045B0000E944D10CE016FED0E944D10CE0160E0C3
:1045C0000E944D10CE0164EB0E940F10CE0163E0FB
:1045D0000E944D10CE0160EA0E944D10CE0160E0B5
:1045E0000E944D10CE016EE20E944D10CE0160E39C
:1045F0000E944D10CE0160E00E944D10CE016FE090
:104600000E944D10CE0160E00E944D10CE0166EB7D
:104610000E940F10CE0162E00E944D10CE016DE0AD
:104620000E944D10CE0160E00E944D10CE0160E16D
:104630000E944D10CE0160E10E944D10CE0160E05D
:104640000E944D10CE0168E00E944D10CE016AEB31
:104650000E940F10CE016FE00E944D10CE0168EB5A
:104660000E940F10CE0167E00E944D10CE0161E064
:104670000E944D10CE0166E30E940F10CE0162E24F
:104680000E944D10CE0160EF0E940F10CE0163E03A
:104690000E944D1061E070E080E090E0D2C0CE0159
:1046A00062EE0E940F10CE0163E20E944D10CE0117
:1046B00062E00E944D10CE0164E00E944D10CE01D8
:1046C00060EE0E940F10CE0161E00E944D106AE082
:1046D00070E080E090E00E948A2FCE0160EE0E94A0
:1046E0000F10CE0163E00E944D106AE070E080E0A0
:1046F00090E00E948A2FCE0161E00E940F1064E6D4
:1047000070E080E090E00E948A2FCE0166EE0E9469
:104710000F10CE0164E00E944D10CE0163E90E94AB
:104720004D10CE0160EE0E944D10CE0160EB0E9454
:104730000F10CE0160E00E944D10CE0160E00E949B
:104740004D10CE0163E00E944D10CE016FE10E943A
:104750004D10CE0161E00E944D10CE016FED0E9420
:104760004D10CE0160E00E944D10CE0164EB0E941E
:104770000F10CE0163E00E944D10CE0160EA0E944E
:104780004D10CE0160E00E944D10CE016EE20E94FD
:104790004D10CE0160E30E944D10CE0160E00E94FA
:1047A0004D10CE016FE00E944D10CE0160E00E94DE
:1047B0004D10CE0166EB0E940F10CE0162E00E9408
:1047C0004D10CE016DE00E944D10CE0160E00E94C0
:1047D0004D10CE0160E10E944D10CE0160E10E94BB
:1047E0004D10CE0160E00E944D10CE0168E00E94A5
:1047F0004D10CE016AEB0E940F10CE0165E00E94C1
:104800004D10CE0168EB0E940F10CE0167E00E94B0
:104810004D10CE0161E00E944D10CE0166E30E9472
:104820000F10CE0162E20E944D10CE0160EF0E9497
:104830000F10CE0163E00E944D106AE070E080E04E
:1048400090E00E948A2FCE0160E070E040E050E0EE
:104850002FE133E00FED11E023CECE0161E144E022
:1048600050E20E946910CE0163E140E05CEC0E94DE
:104870006910CE0165E140E056E20E946910CE0168
:1048800064E14AE255E20E946910CE0162E143E32D
:1048900050E00E946910CE0163E144E05CEC0E94AC
:1048A0006910CE0163E146E05CEC0E946910CE0124
:1048B00063E14FE45CEC0E946910CE0163E14FE4D8
:1048C00057E60E946910CE0161E143E050E20E9488
:1048D0006910CE0160E349E056E20E946910CE0102
:1048E00061E34CE254E20E946910CE0162E343E2CC
:1048F0005FE10E946910CE0163E345E254E20E9449
:104900006910CE0164E346E252E20E946910CE01D2
:1049100065E343E255E20E946910CE0166E34AE195
:104920005CE10E946910CE0167E34DE153E10E9412
:104930006910CE0168E341E15BE00E946910CE019D
:1049400069E340E152E10E946910CE016AE345E16A
:1049500053E10E946910CE016BE349E156E30E94E6
:104960006910CE016CE340E05DE00E946910CE0169
:104970006DE34DE050E00E946910CE0166E147E032
:1049800050E00E946910CE0162E043E150E00E94D5
:104990006910CE0163E043E050E00E946910CE014F
:1049A00061E047E251E00E946910CE0168E043E017
:1049B00053E00E946910CE016AE04BE050E00E9493
:1049C0006910CE016BE043E050E00E946910CE0117
:1049D0006CE040E050E00E946910CE0161E440E0EC
:1049E00050E00E946910CE0160E540E050E00E9476
:1049F0006910CE0160E645E050E00E946910CE01EA
:104A000060E74BE050E00E946910CE0161E740E0B2
:104A100050E00E946910CE0168E740E050E00E943B
:104A20006910CE016AE740E050E00E946910CE01B3
:104A300069E747E050E00E946910CE0167E041E578
:104A400050E00E946910CE0167E043E550E00E940B
:104A50006910CE0169E740E050E0EEC2CE0165EE9C
:104A600040E050E80E946910CE0160E041E050E073
:104A70000E946910CE0161E040E051E00E9469109F
:104A8000CE0162E040E057E00E946910CE0163E091
:104A900040E350E10E946910CE0164E040E050E044
:104AA0000E946910CE0168E042E052E00E94691065
:104AB000CE0169E040E050E00E946910CE016AE05A
:104AC00040E050E00E946910CE016CE040E050E010
:104AD0000E946910CE016DE040E050E00E94691034
:104AE000CE016FE040E050E00E946910CE0160E12D
:104AF00040E050E00E946910CE0161E147E050E0E3
:104B00000E946910CE0162E140E050E00E9469100D
:104B1000CE0163E140E050E00E94691062E370E082
:104B200080E090E00E948A2FCE0160E140EB57E1E7
:104B30000E946910CE0161E147E050E00E946910D7
:104B40006AE070E080E090E00E948A2FCE0162E18E
:104B50004AE351E00E9469106AE070E080E090E072
:104B60000E948A2FCE0163E140E05AE10E94691061
:104B7000CE0169E24CE050E00E9469106AE070E00A
:104B800080E090E00E948A2FCE0160E340E050E098
:104B90000E946910CE0161E345E055E00E94691072
:104BA000CE0162E344E050E00E946910CE0165E36B
:104BB00046E050E00E946910CE0166E347E057E00E
:104BC0000E946910CE0167E345E051E00E94691040
:104BD000CE0168E342E050E00E946910CE0169E333
:104BE00047E057E00E946910CE016CE344E057E0D3
:104BF0000E946910CE016DE347E058E00E94691001
:104C0000CE0160E540E050E00E946910CE0161E510
:104C10004FEE50E00E946910CE0162E540E050E0A6
:104C20000E946910CE0163E54FE351E00E946910D4
:104C3000CE0160E640E057E20E946910CE0161E6D5
:104C400041E050E00E946910CE016AE640E050E089
:104C50000E946910CE0161E240E050E00E946910BC
:104C6000CE0160E240E050E00E946910CE0160E8B1
:104C700040E050E00E946910CE0161E840E050E061
:104C80000E946910CE0162E840E050E00E94691085
:104C9000CE0163E840E050E00E946910CE0164E874
:104CA00040E050E00E946910CE0165E840E050E02D
:104CB0000E946910CE0160E940E150E00E94691055
:104CC000CE0162E940E050E00E946910CE0163E944
:104CD00043E050E00E946910CE0165E940E151E0F7
:104CE0000E946910CE0167E940E050E00E9469101F
:104CF000CE0168E940E050E00E946910CE0167E013
:104D000043E751E00E94691062E370E080E090E0C8
:104D10009DC5CE0161E10E940F1064E170E080E06A
:104D200090E00E948A2FCE0160ED0E940F10CE010C
:104D300067E00E944D10CE0162E40E944D10CE014A
:104D400068E10E944D10CE0161ED0E940F10CE016E
:104D500060E00E944D10CE0167E00E944D10CE0130
:104D600060E10E944D10CE0162ED0E940F10CE0155
:104D700061E00E944D10CE0162E00E944D10CE0114
:104D800060EC0E940F10CE0160E10E944D10CE0138
:104D90006BE30E944D10CE0160E00E944D10CE01E9
:104DA00062E00E944D10CE0161E10E944D10CE01E3
:104DB00065EC0E940F10CE0163E00E944D10CE0101
:104DC00068EC0E940F10CE0160E00E944D10CE01F1
:104DD00062E30E944D10CE0166E30E944D10CE01A9
:104DE00065E40E944D10CE0166E00E944D10CE0198
:104DF00066E10E944D10CE0167E30E944D10CE0186
:104E000065E70E944D10CE0167E70E944D10CE016C
:104E100064E50E944D10CE016CE00E944D10CE0161
:104E200060E00E944D10CE0166E30E940F10CE019B
:104E30006AE00E944D10CE016AE30E940F10CE017D
:104E400065E50E944D10CE016AE20E940F10CE016E
:104E500060E00E944D10CE0160E00E944D10CE0136
:104E600061E00E944D10CE016FE30E944D10CE0113
:104E70006BE20E940F10CE0160E00E944D10CE0147
:104E800060E00E944D10CE0161E00E944D10CE0105
:104E900060EE0E944D1068E770E080E090E00E94B4
:104EA0008A2FF9C1CE0161E14AE150E00E94691008
:104EB000CE0162E141E251E30E946910CE0163E15B
:104EC0004CE650E00E946910CE0164E149E452E4EE
:104ED0000E946910CE0160E140E058E00E94691034
:104EE0006AE070E080E090E00E948A2FCE0161E1EC
:104EF0004AE151E00E9469106AE070E080E090E0D1
:104F00000E948A2FCE0161E14AE153E00E946910BC
:104F10006AE070E080E090E00E948A2FCE0161E1BB
:104F20004AE157E00E9469106AE070E080E090E09A
:104F30000E948A2FCE0161E14AE15FE00E94691080
:104F40006AE070E080E090E00E948A2FCE0161E18B
:104F50004AE35FE00E9469106EE170E080E090E05B
:104F60000E948A2FCE0161E04CE151E00E9469105D
:104F7000CE0162E040E051E00E946910CE0163E0A2
:104F800040E350E10E946910CE0167E040E050E04C
:104F90000E946910CE0168E048E058E00E94691064
:104FA000CE016BE040E051E10E946910CE016CE05F
:104FB00040E050E00E946910CE016FE041E054E112
:104FC0000E946910CE0165E140E050E00E94691046
:104FD000CE0160E240E050E00E946910CE0161E243
:104FE00040E050E00E946910CE0166E34FEA50E0D5
:104FF0000E946910CE0167E340E050E00E94691012
:10500000CE0168E34BED50E00E946910CE0169E3E8
:1050100040E050E00E946910CE016FE041E05BE0AB
:105020000E946910CE0167E046E150E00E946910DD
:10503000CE0167E047E150E00E946910CE0162E2D4
:105040007AC5CE0161E10E940F1068E770E080E050
:1050500090E00E948A2FCE0161EB0E940F10CE01DA
:1050600065E00E944D10CE016CE30E944D10CE0110
:105070006CE30E944D10CE0162EB0E940F10CE0136
:1050800065E00E944D10CE016CE30E944D10CE01F0
:105090006CE30E944D10CE0163EB0E940F10CE0115
:1050A00065E00E944D10CE016CE30E944D10CE01D0
:1050B0006CE30E944D10CE0165E00E944D10CE01C0
:1050C0006CE30E944D10CE016CE30E944D10CE01A6
:1050D00064EB0E940F10CE0163E00E944D10CE01E0
:1050E00060EC0E940F10CE0168E20E944D10CE01CC
:1050F00068E00E944D10CE0164E00E944D10CE0188
:1051000061EC0E940F10CE0160EC0E944D10CE01A8
:1051100062EC0E940F10CE016DE00E944D10CE0196
:1051200060E00E944D10CE0163EC0E940F10CE0192
:105130006DE80E944D10CE016AE20E944D10CE0132
:1051400064EC0E940F10CE016DE80E944D10CE015C
:105150006EEE0E944D10CE0165EC0E940F10CE0144
:105160006AE10E944D10CE0166E30E940F10CE014D
:1051700060EC0E944D10CE0160EE0E940F10CE0137
:1051800063E00E944D10CE0162E20E944D10CE01FC
:1051900067E00E944D10CE016AE00E944D10CE01E2
:1051A0006EE20E944D10CE0160E30E944D10CE01D0
:1051B00065E20E944D10CE016AE20E944D10CE01C0
:1051C00068E20E944D10CE0166E20E944D10CE01B1
:1051D0006EE20E944D10CE016AE30E944D10CE0196
:1051E00060E00E944D10CE0161E00E944D10CE01A2
:1051F00063E00E944D10CE0163E10E944D10CE018C
:1052000061EE0E940F10CE0164E00E944D10CE01AD
:1052100066E10E944D10CE0166E00E944D10CE0165
:105220006DE00E944D10CE016DE20E944D10CE0146
:1052300066E20E944D10CE0163E20E944D10CE0145
:1052400067E20E944D10CE0167E20E944D10CE0130
:1052500065E20E944D10CE016DE20E944D10CE011C
:105260006BE30E944D10CE0160E00E944D10CE0114
:1052700061E00E944D10CE0164E00E944D10CE010D
:1052800063E10E944D10CE016AE30E940F10CE012F
:1052900065E00E944D10CE0169E24DC4CE0161E18E
:1052A0000E940F1064E170E080E090E00E948A2F7D
:1052B000CE0168E20E940F1065E070E080E090E0AF
:1052C0000E948A2FCE016FEC0E940F10CE0160E089
:1052D0000E944D10CE0163E80E944D10CE0160E3A4
:1052E0000E944D10CE016DEE0E940F10CE0164E6BB
:1052F0000E944D10CE0163E00E944D10CE0162E18C
:105300000E944D10CE0161E80E944D10CE0168EE62
:105310000E940F10CE0165E80E944D10CE0161E0A1
:105320000E944D10CE0169E70E944D10CE016BEC3A
:105330000E940F10CE0169E30E944D10CE016CE275
:105340000E944D10CE0160E00E944D10CE0164E33A
:105350000E944D10CE0162E00E944D10CE0167EF19
:105360000E940F10CE0160E20E944D10CE016AEE45
:105370000E940F10CE0160E00E944D10CE0160E04F
:105380000E944D10CE0160EC0E940F10CE0166E22B
:105390000E944D10CE0161EC0E940F10CE0161E120
:1053A0000E944D10CE0165EC0E940F10CE0165E306
:1053B0000E944D10CE016EE30E944D10CE0167ECAD
:1053C0000E940F10CE016EEB0E944D10CE0161EBDA
:1053D0000E940F10CE0160E00E944D10CE016BE1E3
:1053E0000E944D10CE0166EB0E940F10CE016AE0C4
:1053F0000E944D10CE0162E80E944D10CE0167E27E
:105400000E944D10CE0160E00E944D10CE0167EB6E
:105410000E940F10CE0167E00E944D10CE016AE39A
:105420000E940F10CE0165E50E944D10CE0166E38B
:105430000E940F10CE0168E40E944D10CE0169E277
:105440000E940F1065E070E080E090E0FFC1CE01A7
:105450006BEC0E940F10CE0169E30E944D10CE014B
:105460006CE20E944D10CE0160E00E944D10CE0112
:1054700064E30E944D10CE0162E00E944D10CE0107
:105480006FEC0E940F10CE0160E00E944D10CE0123
:1054900061EC0E944D10CE0160E30E944D10CE01E0
:1054A00068EE0E940F10CE0165E80E944D10CE01FB
:1054B00060E00E944D10CE0168E70E944D10CE01C1
:1054C0006AEE0E940F10CE0160E00E944D10CE01E6
:1054D00060E00E944D10CE016DEE0E940F10CE01D3
:1054E00064E60E944D10CE0163E00E944D10CE0193
:1054F00062E10E944D10CE0161E80E944D10CE0184
:1055000067EF0E940F10CE0160E20E944D10CE01A5
:1055100060EC0E940F10CE0163E20E944D10CE019C
:1055200061EC0E940F10CE0160E10E944D10CE018F
:1055300065EC0E940F10CE016EE30E944D10CE016B
:1055400068E20E944D10CE0167EC0E940F10CE0160
:1055500066E80E944D10CE0166E30E940F10CE0156
:1055600068E40E944D10CE016AE30E940F10CE0144
:1055700065E50E944D10CE0161EB0E940F10CE0137
:1055800060E00E944D10CE0168E10E944D10CE01F6
:1055900066EB0E940F10CE0168E00E944D10CE0114
:1055A00062E80E944D10CE0167E20E944D10CE01CC
:1055B00061E10E940F1068E770E080E090E09FC218
:1055C000CE0160EB0E940F10CE016EE10E944D10E3
:1055D000CE0160EB0E940F10CE0160E00E944D10E2
:1055E000CE0163EB0E940F10CE0162E00E944D10CD
:1055F000CE0160E00E944D10CE0160E00E944D108F
:10560000CE0160E10E944D10CE0164EB0E940F10AC
:10561000CE0160E00E944D10CE0160EC0E940F10A0
:10562000CE0163E00E944D10CE016BE30E944D104D
:10563000CE0160E00E944D10CE0160E00E944D104E
:10564000CE0160E00E944D10CE0161E00E944D103D
:10565000CE0160E00E944D10CE0163E40E944D1027
:10566000CE0161EC0E940F10CE0168E00E944D1047
:10567000CE0165E10E944D10CE0168E00E944D1000
:10568000CE0168E00E944D10CE0164EC0E940F1024
:10569000CE0165E10E944D10CE0163E00E944D10E5
:1056A000CE0163E00E944D10CE0161E00E944D10DA
:1056B000CE0166EC0E940F10CE0162E00E944D10F8
:1056C000CE0168EC0E940F10CE016CE00E944D10DC
:1056D000CE0165E00E944D10CE016AE00E944D109F
:1056E000CE016BE60E944D10CE0164E00E944D1089
:1056F000CE0166E00E944D10CE0165E10E944D1082
:10570000CE0160E10E944D10CE0160E00E944D107C
:10571000CE0160E60E944D10CE0166E30E940F109C
:10572000CE016AE00E944D10CE016CE00E940F1085
:10573000CE0165E50E944D10CE016AE30E940F1074
:10574000CE0165E50E944D10CE0168E30E940F1066
:10575000CE0160ED0E940F10CE0167E00E944D1057
:10576000CE0167E00E944D10CE0164E10E944D1011
:10577000CE0162EA0E944D10CE0161ED0E940F1031
:10578000CE0163E00E944D10CE016AE50E944D10EB
:10579000CE0160E10E944D10CE0162ED0E940F101B
:1057A000CE0163E00E944D10CE0164E00E944D10D6
:1057B000CE0164E00E944D10CE0161E10E940F1005
:1057C00066E970E080E090E00E948A2FCE016AE2F4
:1057D0000E940F10CE0160E00E944D10CE0160E0EB
:1057E0000E944D10CE0161E00E944D10CE016FED80
:1057F0000E944D10CE016BE20E940F10CE0160E0BE
:105800000E944D10CE0160E00E944D10CE0161E07B
:105810000E944D10CE016FE30E944D1064E670E0CF
:1058200080E090E00E948A2FCE0169E20E940F1072
:105830006EE170E080E090E00E948A2FCE016CE281
:105840000E940F106EE170E080E090E00E948A2FCD
:1058500074C1CE0161E10E940F1062E370E080E04C
:1058600090E00E948A2FCE0162EF0E940F10CE01BD
:105870006CE10E944D10CE0163EA0E944D10CE01F2
:1058800062E30E944D10CE0162E00E944D10CE01F5
:1058900062EB0E944D10CE0162E10E944D10CE01DC
:1058A0006FEF0E944D10CE0162E10E944D10CE01BB
:1058B00060E00E944D10CE0161EF0E940F10CE01FA
:1058C00066E30E944D10CE0164EA0E944D10CE01A5
:1058D00068EF0E940F10CE0161E20E944D10CE01D0
:1058E00064E00E944D10CE0169EF0E940F10CE01BE
:1058F00060E00E944D10CE0168E00E944D10CE0184
:1059000060EC0E940F10CE016DE00E944D10CE01A0
:105910006DE00E944D10CE0161EC0E940F10CE018F
:1059200063E40E944D10CE0160E00E944D10CE0154
:1059300062EC0E940F10CE0160E00E944D10CE017B
:1059400065EC0E940F10CE0160E00E944D10CE0168
:1059500068E40E944D10CE0166EB0E940F10CE014C
:1059600060E00E944D10CE0162E20E944D10CE0117
:105970006BE30E944D10CE0160EE0E940F10CE012D
:105980006FE00E944D10CE0164E20E944D10CE01E6
:105990006CE10E944D10CE016AE00E944D10CE01D4
:1059A0006FE00E944D10CE0168E00E944D10CE01C4
:1059B00063E40E944D10CE0168E80E944D10CE01B4
:1059C00062E30E944D10CE016FE00E944D10CE01A7
:1059D00060E10E944D10CE0166E00E944D10CE01A4
:1059E0006FE00E944D10CE0167E00E944D10CE0185
:1059F00060E00E944D10CE0161EE0E940F10CE01BA
:105A00006FE00E944D10CE0168E30E944D10CE0160
:105A100060E30E944D10CE0169E00E944D10CE015E
:105A20006FE00E944D10CE016FE00E944D10CE013C
:105A30006EE40E944D10CE0167E70E944D10CE012A
:105A40006CE30E944D10CE0167E00E944D10CE0124
:105A500060E10E944D10CE0165E00E944D10CE0124
:105A600063E20E944D10CE016BE10E944D10CE0109
:105A700060E00E944D10CE0160E20E940F10CE0146
:105A800060E00E944D10CE0166E30E940F10CE012F
:105A90006AE00E944D10CE016AE30E940F10CE0111
:105AA00065E50E944D10CE016AE20E940F10CE0102
:105AB00060E00E944D10CE0160E00E944D10CE01CA
:105AC00061E00E944D10CE016FED0E944D10CE019D
:105AD0006BE20E940F10CE0160E00E944D10CE01DB
